{
  "_format": "hh-sol-artifact-1",
  "contractName": "AttestationsVerifier",
  "sourceName": "contracts/attestationsVerifier.sol",
  "abi": [
    {
      "inputs": [
        {
          "internalType": "address[]",
          "name": "initialCommittee",
          "type": "address[]"
        }
      ],
      "stateMutability": "nonpayable",
      "type": "constructor"
    },
    {
      "anonymous": false,
      "inputs": [
        {
          "indexed": true,
          "internalType": "bytes32",
          "name": "batchHash",
          "type": "bytes32"
        }
      ],
      "name": "BatchApplied",
      "type": "event"
    },
    {
      "anonymous": false,
      "inputs": [
        {
          "indexed": true,
          "internalType": "address",
          "name": "signer",
          "type": "address"
        }
      ],
      "name": "SignerEmitted",
      "type": "event"
    },
    {
      "anonymous": false,
      "inputs": [
        {
          "indexed": true,
          "internalType": "address",
          "name": "signer",
          "type": "address"
        }
      ],
      "name": "SignerNotInCommittee",
      "type": "event"
    },
    {
      "inputs": [
        {
          "components": [
            {
              "internalType": "address[]",
              "name": "nextCommittee",
              "type": "address[]"
            },
            {
              "internalType": "address[]",
              "name": "bannedCommittee",
              "type": "address[]"
            },
            {
              "internalType": "bytes32[]",
              "name": "committedSfx",
              "type": "bytes32[]"
            },
            {
              "internalType": "bytes32[]",
              "name": "revertedSfx",
              "type": "bytes32[]"
            },
            {
              "internalType": "uint32",
              "name": "index",
              "type": "uint32"
            }
          ],
          "internalType": "struct AttestationsVerifier.Batch",
          "name": "batch",
          "type": "tuple"
        }
      ],
      "name": "batchEncodePacked",
      "outputs": [
        {
          "internalType": "bytes",
          "name": "",
          "type": "bytes"
        }
      ],
      "stateMutability": "pure",
      "type": "function"
    },
    {
      "inputs": [
        {
          "internalType": "bytes32",
          "name": "",
          "type": "bytes32"
        }
      ],
      "name": "committedSfxMap",
      "outputs": [
        {
          "internalType": "bool",
          "name": "",
          "type": "bool"
        }
      ],
      "stateMutability": "view",
      "type": "function"
    },
    {
      "inputs": [],
      "name": "committeeSize",
      "outputs": [
        {
          "internalType": "uint256",
          "name": "",
          "type": "uint256"
        }
      ],
      "stateMutability": "view",
      "type": "function"
    },
    {
      "inputs": [],
      "name": "currentBatchIndex",
      "outputs": [
        {
          "internalType": "uint256",
          "name": "",
          "type": "uint256"
        }
      ],
      "stateMutability": "view",
      "type": "function"
    },
    {
      "inputs": [
        {
          "internalType": "address",
          "name": "",
          "type": "address"
        }
      ],
      "name": "current_committee",
      "outputs": [
        {
          "internalType": "bool",
          "name": "",
          "type": "bool"
        }
      ],
      "stateMutability": "view",
      "type": "function"
    },
    {
      "inputs": [
        {
          "internalType": "address[]",
          "name": "nextCommittee",
          "type": "address[]"
        },
        {
          "internalType": "address[]",
          "name": "bannedCommittee",
          "type": "address[]"
        },
        {
          "internalType": "bytes32[]",
          "name": "committedSfx",
          "type": "bytes32[]"
        },
        {
          "internalType": "bytes32[]",
          "name": "revertedSfx",
          "type": "bytes32[]"
        },
        {
          "internalType": "uint32",
          "name": "index",
          "type": "uint32"
        },
        {
          "internalType": "bytes32",
          "name": "expectedBatchHash",
          "type": "bytes32"
        },
        {
          "internalType": "bytes[]",
          "name": "signatures",
          "type": "bytes[]"
        }
      ],
      "name": "receiveAttestationBatch",
      "outputs": [],
      "stateMutability": "nonpayable",
      "type": "function"
    },
    {
      "inputs": [
        {
          "internalType": "bytes32",
          "name": "messageHash",
          "type": "bytes32"
        },
        {
          "internalType": "bytes",
          "name": "signature",
          "type": "bytes"
        }
      ],
      "name": "recoverSigner",
      "outputs": [
        {
          "internalType": "address",
          "name": "",
          "type": "address"
        }
      ],
      "stateMutability": "pure",
      "type": "function"
    },
    {
      "inputs": [
        {
          "internalType": "bytes32",
          "name": "",
          "type": "bytes32"
        }
      ],
      "name": "revertedSfxMap",
      "outputs": [
        {
          "internalType": "bool",
          "name": "",
          "type": "bool"
        }
      ],
      "stateMutability": "view",
      "type": "function"
    },
    {
      "inputs": [
        {
          "internalType": "bytes32",
          "name": "messageHash",
          "type": "bytes32"
        },
        {
          "internalType": "bytes[]",
          "name": "signatures",
          "type": "bytes[]"
        }
      ],
      "name": "verifySignedByActiveCommittee",
      "outputs": [
        {
          "internalType": "bool",
          "name": "",
          "type": "bool"
        }
      ],
      "stateMutability": "nonpayable",
      "type": "function"
    }
  ],
  "bytecode": "0x60806040523480156200001157600080fd5b5060405162001cb438038062001cb48339818101604052810190620000379190620002d4565b60005b8151811015620000ce5760016000808484815181106200005f576200005e62000325565b5b602002602001015173ffffffffffffffffffffffffffffffffffffffff1673ffffffffffffffffffffffffffffffffffffffff16815260200190815260200160002060006101000a81548160ff0219169083151502179055508080620000c5906200038d565b9150506200003a565b508051600381905550600060048190555050620003da565b6000604051905090565b600080fd5b600080fd5b600080fd5b6000601f19601f8301169050919050565b7f4e487b7100000000000000000000000000000000000000000000000000000000600052604160045260246000fd5b6200014a82620000ff565b810181811067ffffffffffffffff821117156200016c576200016b62000110565b5b80604052505050565b600062000181620000e6565b90506200018f82826200013f565b919050565b600067ffffffffffffffff821115620001b257620001b162000110565b5b602082029050602081019050919050565b600080fd5b600073ffffffffffffffffffffffffffffffffffffffff82169050919050565b6000620001f582620001c8565b9050919050565b6200020781620001e8565b81146200021357600080fd5b50565b6000815190506200022781620001fc565b92915050565b6000620002446200023e8462000194565b62000175565b905080838252602082019050602084028301858111156200026a5762000269620001c3565b5b835b8181101562000297578062000282888262000216565b8452602084019350506020810190506200026c565b5050509392505050565b600082601f830112620002b957620002b8620000fa565b5b8151620002cb8482602086016200022d565b91505092915050565b600060208284031215620002ed57620002ec620000f0565b5b600082015167ffffffffffffffff8111156200030e576200030d620000f5565b5b6200031c84828501620002a1565b91505092915050565b7f4e487b7100000000000000000000000000000000000000000000000000000000600052603260045260246000fd5b7f4e487b7100000000000000000000000000000000000000000000000000000000600052601160045260246000fd5b6000819050919050565b60006200039a8262000383565b91507fffffffffffffffffffffffffffffffffffffffffffffffffffffffffffffffff8203620003cf57620003ce62000354565b5b600182019050919050565b6118ca80620003ea6000396000f3fe608060405234801561001057600080fd5b50600436106100935760003560e01c8063907a3ee311610066578063907a3ee31461013257806397aba7f9146101625780639cf4364b14610192578063a6a39ebd146101b0578063af7e59b9146101e057610093565b806356931ab0146100985780636090b30e146100c8578063705648c1146100e657806371986f0614610102575b600080fd5b6100b260048036038101906100ad919061097b565b610210565b6040516100bf91906109c3565b60405180910390f35b6100d0610230565b6040516100dd91906109f7565b60405180910390f35b61010060048036038101906100fb9190610e5e565b610236565b005b61011c60048036038101906101179190610f8c565b610662565b60405161012991906109c3565b60405180910390f35b61014c600480360381019061014791906110ee565b6107a7565b60405161015991906111b6565b60405180910390f35b61017c600480360381019061017791906111d8565b6107ec565b6040516101899190611243565b60405180910390f35b61019a6108eb565b6040516101a791906109f7565b60405180910390f35b6101ca60048036038101906101c5919061097b565b6108f1565b6040516101d791906109c3565b60405180910390f35b6101fa60048036038101906101f5919061125e565b610911565b60405161020791906109c3565b60405180910390f35b60026020528060005260406000206000915054906101000a900460ff1681565b60045481565b60006040518060a001604052808981526020018881526020018781526020018681526020018563ffffffff168152509050600454816080015163ffffffff16146102b5576040517f08c379a00000000000000000000000000000000000000000000000000000000081526004016102ac906112e8565b60405180910390fd5b6102bf8383610662565b6102fe576040517f08c379a00000000000000000000000000000000000000000000000000000000081526004016102f590611354565b60405180910390fd5b6000600354905060005b82600001515181101561041b576000808460000151838151811061032f5761032e611374565b5b602002602001015173ffffffffffffffffffffffffffffffffffffffff1673ffffffffffffffffffffffffffffffffffffffff16815260200190815260200160002060009054906101000a900460ff166104085760016000808560000151848151811061039f5761039e611374565b5b602002602001015173ffffffffffffffffffffffffffffffffffffffff1673ffffffffffffffffffffffffffffffffffffffff16815260200190815260200160002060006101000a81548160ff02191690831515021790555060018261040591906113d2565b91505b808061041390611406565b915050610308565b5060005b82602001515181101561052a576000808460200151838151811061044657610445611374565b5b602002602001015173ffffffffffffffffffffffffffffffffffffffff1673ffffffffffffffffffffffffffffffffffffffff16815260200190815260200160002060009054906101000a900460ff161561051757600080846020015183815181106104b5576104b4611374565b5b602002602001015173ffffffffffffffffffffffffffffffffffffffff1673ffffffffffffffffffffffffffffffffffffffff16815260200190815260200160002060006101000a81549060ff0219169055600182610514919061144e565b91505b808061052290611406565b91505061041f565b508060038190555060005b82604001515181101561059e5760018060008560400151848151811061055e5761055d611374565b5b6020026020010151815260200190815260200160002060006101000a81548160ff021916908315150217905550808061059690611406565b915050610535565b5060005b82606001515181101561060c57600160026000856060015184815181106105cc576105cb611374565b5b6020026020010151815260200190815260200160002060006101000a81548160ff021916908315150217905550808061060490611406565b9150506105a2565b506001826080015161061e9190611482565b63ffffffff16600481905550837f5a0cfe6a3799c25127f59391fefd2e36141a1db850684ae89efc6ba8add9ce0660405160405180910390a2505050505050505050565b6000806000905060006003600260035461067c91906114ba565b610686919061152b565b905060005b845181101561077e5760006106ba878784815181106106ad576106ac611374565b5b60200260200101516107ec565b9050600073ffffffffffffffffffffffffffffffffffffffff168173ffffffffffffffffffffffffffffffffffffffff161415801561074157506000808273ffffffffffffffffffffffffffffffffffffffff1673ffffffffffffffffffffffffffffffffffffffff16815260200190815260200160002060009054906101000a900460ff165b1561076a5760018461075391906113d2565b93508284106107695760019450505050506107a1565b5b50808061077690611406565b91505061068b565b506003600260035461079091906114ba565b61079a919061152b565b8211925050505b92915050565b6060816000015182602001518360400151846060015185608001516040516020016107d6959493929190611702565b6040516020818303038152906040529050919050565b600080600080604185511461080757600093505050506108e5565b6020850151925060408501519150606085015160001a9050601b8160ff16101561083b57601b81610838919061175e565b90505b601b8160ff16141580156108535750601c8160ff1614155b1561086457600093505050506108e5565b600086604051602001610877919061180b565b604051602081830303815290604052805190602001209050600181838686604051600081526020016040526040516108b2949392919061184f565b6020604051602081039080840390855afa1580156108d4573d6000803e3d6000fd5b505050602060405103519450505050505b92915050565b60035481565b60016020528060005260406000206000915054906101000a900460ff1681565b60006020528060005260406000206000915054906101000a900460ff1681565b6000604051905090565b600080fd5b600080fd5b6000819050919050565b61095881610945565b811461096357600080fd5b50565b6000813590506109758161094f565b92915050565b6000602082840312156109915761099061093b565b5b600061099f84828501610966565b91505092915050565b60008115159050919050565b6109bd816109a8565b82525050565b60006020820190506109d860008301846109b4565b92915050565b6000819050919050565b6109f1816109de565b82525050565b6000602082019050610a0c60008301846109e8565b92915050565b600080fd5b6000601f19601f8301169050919050565b7f4e487b7100000000000000000000000000000000000000000000000000000000600052604160045260246000fd5b610a6082610a17565b810181811067ffffffffffffffff82111715610a7f57610a7e610a28565b5b80604052505050565b6000610a92610931565b9050610a9e8282610a57565b919050565b600067ffffffffffffffff821115610abe57610abd610a28565b5b602082029050602081019050919050565b600080fd5b600073ffffffffffffffffffffffffffffffffffffffff82169050919050565b6000610aff82610ad4565b9050919050565b610b0f81610af4565b8114610b1a57600080fd5b50565b600081359050610b2c81610b06565b92915050565b6000610b45610b4084610aa3565b610a88565b90508083825260208201905060208402830185811115610b6857610b67610acf565b5b835b81811015610b915780610b7d8882610b1d565b845260208401935050602081019050610b6a565b5050509392505050565b600082601f830112610bb057610baf610a12565b5b8135610bc0848260208601610b32565b91505092915050565b600067ffffffffffffffff821115610be457610be3610a28565b5b602082029050602081019050919050565b6000610c08610c0384610bc9565b610a88565b90508083825260208201905060208402830185811115610c2b57610c2a610acf565b5b835b81811015610c545780610c408882610966565b845260208401935050602081019050610c2d565b5050509392505050565b600082601f830112610c7357610c72610a12565b5b8135610c83848260208601610bf5565b91505092915050565b600063ffffffff82169050919050565b610ca581610c8c565b8114610cb057600080fd5b50565b600081359050610cc281610c9c565b92915050565b600067ffffffffffffffff821115610ce357610ce2610a28565b5b602082029050602081019050919050565b600080fd5b600067ffffffffffffffff821115610d1457610d13610a28565b5b610d1d82610a17565b9050602081019050919050565b82818337600083830152505050565b6000610d4c610d4784610cf9565b610a88565b905082815260208101848484011115610d6857610d67610cf4565b5b610d73848285610d2a565b509392505050565b600082601f830112610d9057610d8f610a12565b5b8135610da0848260208601610d39565b91505092915050565b6000610dbc610db784610cc8565b610a88565b90508083825260208201905060208402830185811115610ddf57610dde610acf565b5b835b81811015610e2657803567ffffffffffffffff811115610e0457610e03610a12565b5b808601610e118982610d7b565b85526020850194505050602081019050610de1565b5050509392505050565b600082601f830112610e4557610e44610a12565b5b8135610e55848260208601610da9565b91505092915050565b600080600080600080600060e0888a031215610e7d57610e7c61093b565b5b600088013567ffffffffffffffff811115610e9b57610e9a610940565b5b610ea78a828b01610b9b565b975050602088013567ffffffffffffffff811115610ec857610ec7610940565b5b610ed48a828b01610b9b565b965050604088013567ffffffffffffffff811115610ef557610ef4610940565b5b610f018a828b01610c5e565b955050606088013567ffffffffffffffff811115610f2257610f21610940565b5b610f2e8a828b01610c5e565b9450506080610f3f8a828b01610cb3565b93505060a0610f508a828b01610966565b92505060c088013567ffffffffffffffff811115610f7157610f70610940565b5b610f7d8a828b01610e30565b91505092959891949750929550565b60008060408385031215610fa357610fa261093b565b5b6000610fb185828601610966565b925050602083013567ffffffffffffffff811115610fd257610fd1610940565b5b610fde85828601610e30565b9150509250929050565b600080fd5b600080fd5b600060a0828403121561100857611007610fe8565b5b61101260a0610a88565b9050600082013567ffffffffffffffff81111561103257611031610fed565b5b61103e84828501610b9b565b600083015250602082013567ffffffffffffffff81111561106257611061610fed565b5b61106e84828501610b9b565b602083015250604082013567ffffffffffffffff81111561109257611091610fed565b5b61109e84828501610c5e565b604083015250606082013567ffffffffffffffff8111156110c2576110c1610fed565b5b6110ce84828501610c5e565b60608301525060806110e284828501610cb3565b60808301525092915050565b6000602082840312156111045761110361093b565b5b600082013567ffffffffffffffff81111561112257611121610940565b5b61112e84828501610ff2565b91505092915050565b600081519050919050565b600082825260208201905092915050565b60005b83811015611171578082015181840152602081019050611156565b60008484015250505050565b600061118882611137565b6111928185611142565b93506111a2818560208601611153565b6111ab81610a17565b840191505092915050565b600060208201905081810360008301526111d0818461117d565b905092915050565b600080604083850312156111ef576111ee61093b565b5b60006111fd85828601610966565b925050602083013567ffffffffffffffff81111561121e5761121d610940565b5b61122a85828601610d7b565b9150509250929050565b61123d81610af4565b82525050565b60006020820190506112586000830184611234565b92915050565b6000602082840312156112745761127361093b565b5b600061128284828501610b1d565b91505092915050565b600082825260208201905092915050565b7f426174636820696e646578206d69736d61746368000000000000000000000000600082015250565b60006112d260148361128b565b91506112dd8261129c565b602082019050919050565b60006020820190508181036000830152611301816112c5565b9050919050565b7f5369676e61747572657320766572696669636174696f6e206661696c65640000600082015250565b600061133e601e8361128b565b915061134982611308565b602082019050919050565b6000602082019050818103600083015261136d81611331565b9050919050565b7f4e487b7100000000000000000000000000000000000000000000000000000000600052603260045260246000fd5b7f4e487b7100000000000000000000000000000000000000000000000000000000600052601160045260246000fd5b60006113dd826109de565b91506113e8836109de565b9250828201905080821115611400576113ff6113a3565b5b92915050565b6000611411826109de565b91507fffffffffffffffffffffffffffffffffffffffffffffffffffffffffffffffff8203611443576114426113a3565b5b600182019050919050565b6000611459826109de565b9150611464836109de565b925082820390508181111561147c5761147b6113a3565b5b92915050565b600061148d82610c8c565b915061149883610c8c565b9250828201905063ffffffff8111156114b4576114b36113a3565b5b92915050565b60006114c5826109de565b91506114d0836109de565b92508282026114de816109de565b915082820484148315176114f5576114f46113a3565b5b5092915050565b7f4e487b7100000000000000000000000000000000000000000000000000000000600052601260045260246000fd5b6000611536826109de565b9150611541836109de565b925082611551576115506114fc565b5b828204905092915050565b600081519050919050565b600081905092915050565b6000819050602082019050919050565b61158b81610af4565b82525050565b600061159d8383611582565b60208301905092915050565b6000602082019050919050565b60006115c18261155c565b6115cb8185611567565b93506115d683611572565b8060005b838110156116075781516115ee8882611591565b97506115f9836115a9565b9250506001810190506115da565b5085935050505092915050565b600081519050919050565b600081905092915050565b6000819050602082019050919050565b61164381610945565b82525050565b6000611655838361163a565b60208301905092915050565b6000602082019050919050565b600061167982611614565b611683818561161f565b935061168e8361162a565b8060005b838110156116bf5781516116a68882611649565b97506116b183611661565b925050600181019050611692565b5085935050505092915050565b60008160e01b9050919050565b60006116e4826116cc565b9050919050565b6116fc6116f782610c8c565b6116d9565b82525050565b600061170e82886115b6565b915061171a82876115b6565b9150611726828661166e565b9150611732828561166e565b915061173e82846116eb565b6004820191508190509695505050505050565b600060ff82169050919050565b600061176982611751565b915061177483611751565b9250828201905060ff81111561178d5761178c6113a3565b5b92915050565b600081905092915050565b7f19457468657265756d205369676e6564204d6573736167653a0a333200000000600082015250565b60006117d4601c83611793565b91506117df8261179e565b601c82019050919050565b6000819050919050565b61180561180082610945565b6117ea565b82525050565b6000611816826117c7565b915061182282846117f4565b60208201915081905092915050565b61183a81610945565b82525050565b61184981611751565b82525050565b60006080820190506118646000830187611831565b6118716020830186611840565b61187e6040830185611831565b61188b6060830184611831565b9594505050505056fea26469706673582212206d6d393fd71e8dd96dcd08b5402f306457bc972b957180230e59a6ef8621998c64736f6c63430008120033",
  "linkReferences": {},
  "deployedLinkReferences": {}
}