{"contracts/attestationsVerifier.sol":{"AttestationsVerifier":{"abi":[{"inputs":[{"internalType":"address[]","name":"initialCommittee","type":"address[]"}],"stateMutability":"nonpayable","type":"constructor"},{"anonymous":false,"inputs":[{"indexed":true,"internalType":"bytes32","name":"batchHash","type":"bytes32"}],"name":"BatchApplied","type":"event"},{"anonymous":false,"inputs":[{"indexed":true,"internalType":"address","name":"signer","type":"address"}],"name":"SignerEmitted","type":"event"},{"anonymous":false,"inputs":[{"indexed":true,"internalType":"address","name":"signer","type":"address"}],"name":"SignerNotInCommittee","type":"event"},{"inputs":[{"components":[{"internalType":"address[]","name":"nextCommittee","type":"address[]"},{"internalType":"address[]","name":"bannedCommittee","type":"address[]"},{"internalType":"bytes32[]","name":"committedSfx","type":"bytes32[]"},{"internalType":"bytes32[]","name":"revertedSfx","type":"bytes32[]"},{"internalType":"uint32","name":"index","type":"uint32"}],"internalType":"struct AttestationsVerifier.Batch","name":"batch","type":"tuple"}],"name":"batchEncodePacked","outputs":[{"internalType":"bytes","name":"","type":"bytes"}],"stateMutability":"pure","type":"function"},{"inputs":[{"internalType":"bytes32","name":"","type":"bytes32"}],"name":"committedSfxMap","outputs":[{"internalType":"bool","name":"","type":"bool"}],"stateMutability":"view","type":"function"},{"inputs":[],"name":"committeeSize","outputs":[{"internalType":"uint256","name":"","type":"uint256"}],"stateMutability":"view","type":"function"},{"inputs":[],"name":"currentBatchIndex","outputs":[{"internalType":"uint256","name":"","type":"uint256"}],"stateMutability":"view","type":"function"},{"inputs":[{"internalType":"address","name":"","type":"address"}],"name":"current_committee","outputs":[{"internalType":"bool","name":"","type":"bool"}],"stateMutability":"view","type":"function"},{"inputs":[{"internalType":"address[]","name":"nextCommittee","type":"address[]"},{"internalType":"address[]","name":"bannedCommittee","type":"address[]"},{"internalType":"bytes32[]","name":"committedSfx","type":"bytes32[]"},{"internalType":"bytes32[]","name":"revertedSfx","type":"bytes32[]"},{"internalType":"uint32","name":"index","type":"uint32"},{"internalType":"bytes32","name":"expectedBatchHash","type":"bytes32"},{"internalType":"bytes[]","name":"signatures","type":"bytes[]"}],"name":"receiveAttestationBatch","outputs":[],"stateMutability":"nonpayable","type":"function"},{"inputs":[{"internalType":"bytes32","name":"messageHash","type":"bytes32"},{"internalType":"bytes","name":"signature","type":"bytes"}],"name":"recoverSigner","outputs":[{"internalType":"address","name":"","type":"address"}],"stateMutability":"pure","type":"function"},{"inputs":[{"internalType":"bytes32","name":"","type":"bytes32"}],"name":"revertedSfxMap","outputs":[{"internalType":"bool","name":"","type":"bool"}],"stateMutability":"view","type":"function"},{"inputs":[{"internalType":"bytes32","name":"messageHash","type":"bytes32"},{"internalType":"bytes[]","name":"signatures","type":"bytes[]"}],"name":"verifySignedByActiveCommittee","outputs":[{"internalType":"bool","name":"","type":"bool"}],"stateMutability":"nonpayable","type":"function"}],"evm":{"bytecode":{"linkReferences":{},"object":"60806040523480156200001157600080fd5b5060405162001cb438038062001cb48339818101604052810190620000379190620002d4565b60005b8151811015620000ce5760016000808484815181106200005f576200005e62000325565b5b602002602001015173ffffffffffffffffffffffffffffffffffffffff1673ffffffffffffffffffffffffffffffffffffffff16815260200190815260200160002060006101000a81548160ff0219169083151502179055508080620000c5906200038d565b9150506200003a565b508051600381905550600060048190555050620003da565b6000604051905090565b600080fd5b600080fd5b600080fd5b6000601f19601f8301169050919050565b7f4e487b7100000000000000000000000000000000000000000000000000000000600052604160045260246000fd5b6200014a82620000ff565b810181811067ffffffffffffffff821117156200016c576200016b62000110565b5b80604052505050565b600062000181620000e6565b90506200018f82826200013f565b919050565b600067ffffffffffffffff821115620001b257620001b162000110565b5b602082029050602081019050919050565b600080fd5b600073ffffffffffffffffffffffffffffffffffffffff82169050919050565b6000620001f582620001c8565b9050919050565b6200020781620001e8565b81146200021357600080fd5b50565b6000815190506200022781620001fc565b92915050565b6000620002446200023e8462000194565b62000175565b905080838252602082019050602084028301858111156200026a5762000269620001c3565b5b835b8181101562000297578062000282888262000216565b8452602084019350506020810190506200026c565b5050509392505050565b600082601f830112620002b957620002b8620000fa565b5b8151620002cb8482602086016200022d565b91505092915050565b600060208284031215620002ed57620002ec620000f0565b5b600082015167ffffffffffffffff8111156200030e576200030d620000f5565b5b6200031c84828501620002a1565b91505092915050565b7f4e487b7100000000000000000000000000000000000000000000000000000000600052603260045260246000fd5b7f4e487b7100000000000000000000000000000000000000000000000000000000600052601160045260246000fd5b6000819050919050565b60006200039a8262000383565b91507fffffffffffffffffffffffffffffffffffffffffffffffffffffffffffffffff8203620003cf57620003ce62000354565b5b600182019050919050565b6118ca80620003ea6000396000f3fe608060405234801561001057600080fd5b50600436106100935760003560e01c8063907a3ee311610066578063907a3ee31461013257806397aba7f9146101625780639cf4364b14610192578063a6a39ebd146101b0578063af7e59b9146101e057610093565b806356931ab0146100985780636090b30e146100c8578063705648c1146100e657806371986f0614610102575b600080fd5b6100b260048036038101906100ad919061097b565b610210565b6040516100bf91906109c3565b60405180910390f35b6100d0610230565b6040516100dd91906109f7565b60405180910390f35b61010060048036038101906100fb9190610e5e565b610236565b005b61011c60048036038101906101179190610f8c565b610662565b60405161012991906109c3565b60405180910390f35b61014c600480360381019061014791906110ee565b6107a7565b60405161015991906111b6565b60405180910390f35b61017c600480360381019061017791906111d8565b6107ec565b6040516101899190611243565b60405180910390f35b61019a6108eb565b6040516101a791906109f7565b60405180910390f35b6101ca60048036038101906101c5919061097b565b6108f1565b6040516101d791906109c3565b60405180910390f35b6101fa60048036038101906101f5919061125e565b610911565b60405161020791906109c3565b60405180910390f35b60026020528060005260406000206000915054906101000a900460ff1681565b60045481565b60006040518060a001604052808981526020018881526020018781526020018681526020018563ffffffff168152509050600454816080015163ffffffff16146102b5576040517f08c379a00000000000000000000000000000000000000000000000000000000081526004016102ac906112e8565b60405180910390fd5b6102bf8383610662565b6102fe576040517f08c379a00000000000000000000000000000000000000000000000000000000081526004016102f590611354565b60405180910390fd5b6000600354905060005b82600001515181101561041b576000808460000151838151811061032f5761032e611374565b5b602002602001015173ffffffffffffffffffffffffffffffffffffffff1673ffffffffffffffffffffffffffffffffffffffff16815260200190815260200160002060009054906101000a900460ff166104085760016000808560000151848151811061039f5761039e611374565b5b602002602001015173ffffffffffffffffffffffffffffffffffffffff1673ffffffffffffffffffffffffffffffffffffffff16815260200190815260200160002060006101000a81548160ff02191690831515021790555060018261040591906113d2565b91505b808061041390611406565b915050610308565b5060005b82602001515181101561052a576000808460200151838151811061044657610445611374565b5b602002602001015173ffffffffffffffffffffffffffffffffffffffff1673ffffffffffffffffffffffffffffffffffffffff16815260200190815260200160002060009054906101000a900460ff161561051757600080846020015183815181106104b5576104b4611374565b5b602002602001015173ffffffffffffffffffffffffffffffffffffffff1673ffffffffffffffffffffffffffffffffffffffff16815260200190815260200160002060006101000a81549060ff0219169055600182610514919061144e565b91505b808061052290611406565b91505061041f565b508060038190555060005b82604001515181101561059e5760018060008560400151848151811061055e5761055d611374565b5b6020026020010151815260200190815260200160002060006101000a81548160ff021916908315150217905550808061059690611406565b915050610535565b5060005b82606001515181101561060c57600160026000856060015184815181106105cc576105cb611374565b5b6020026020010151815260200190815260200160002060006101000a81548160ff021916908315150217905550808061060490611406565b9150506105a2565b506001826080015161061e9190611482565b63ffffffff16600481905550837f5a0cfe6a3799c25127f59391fefd2e36141a1db850684ae89efc6ba8add9ce0660405160405180910390a2505050505050505050565b6000806000905060006003600260035461067c91906114ba565b610686919061152b565b905060005b845181101561077e5760006106ba878784815181106106ad576106ac611374565b5b60200260200101516107ec565b9050600073ffffffffffffffffffffffffffffffffffffffff168173ffffffffffffffffffffffffffffffffffffffff161415801561074157506000808273ffffffffffffffffffffffffffffffffffffffff1673ffffffffffffffffffffffffffffffffffffffff16815260200190815260200160002060009054906101000a900460ff165b1561076a5760018461075391906113d2565b93508284106107695760019450505050506107a1565b5b50808061077690611406565b91505061068b565b506003600260035461079091906114ba565b61079a919061152b565b8211925050505b92915050565b6060816000015182602001518360400151846060015185608001516040516020016107d6959493929190611702565b6040516020818303038152906040529050919050565b600080600080604185511461080757600093505050506108e5565b6020850151925060408501519150606085015160001a9050601b8160ff16101561083b57601b81610838919061175e565b90505b601b8160ff16141580156108535750601c8160ff1614155b1561086457600093505050506108e5565b600086604051602001610877919061180b565b604051602081830303815290604052805190602001209050600181838686604051600081526020016040526040516108b2949392919061184f565b6020604051602081039080840390855afa1580156108d4573d6000803e3d6000fd5b505050602060405103519450505050505b92915050565b60035481565b60016020528060005260406000206000915054906101000a900460ff1681565b60006020528060005260406000206000915054906101000a900460ff1681565b6000604051905090565b600080fd5b600080fd5b6000819050919050565b61095881610945565b811461096357600080fd5b50565b6000813590506109758161094f565b92915050565b6000602082840312156109915761099061093b565b5b600061099f84828501610966565b91505092915050565b60008115159050919050565b6109bd816109a8565b82525050565b60006020820190506109d860008301846109b4565b92915050565b6000819050919050565b6109f1816109de565b82525050565b6000602082019050610a0c60008301846109e8565b92915050565b600080fd5b6000601f19601f8301169050919050565b7f4e487b7100000000000000000000000000000000000000000000000000000000600052604160045260246000fd5b610a6082610a17565b810181811067ffffffffffffffff82111715610a7f57610a7e610a28565b5b80604052505050565b6000610a92610931565b9050610a9e8282610a57565b919050565b600067ffffffffffffffff821115610abe57610abd610a28565b5b602082029050602081019050919050565b600080fd5b600073ffffffffffffffffffffffffffffffffffffffff82169050919050565b6000610aff82610ad4565b9050919050565b610b0f81610af4565b8114610b1a57600080fd5b50565b600081359050610b2c81610b06565b92915050565b6000610b45610b4084610aa3565b610a88565b90508083825260208201905060208402830185811115610b6857610b67610acf565b5b835b81811015610b915780610b7d8882610b1d565b845260208401935050602081019050610b6a565b5050509392505050565b600082601f830112610bb057610baf610a12565b5b8135610bc0848260208601610b32565b91505092915050565b600067ffffffffffffffff821115610be457610be3610a28565b5b602082029050602081019050919050565b6000610c08610c0384610bc9565b610a88565b90508083825260208201905060208402830185811115610c2b57610c2a610acf565b5b835b81811015610c545780610c408882610966565b845260208401935050602081019050610c2d565b5050509392505050565b600082601f830112610c7357610c72610a12565b5b8135610c83848260208601610bf5565b91505092915050565b600063ffffffff82169050919050565b610ca581610c8c565b8114610cb057600080fd5b50565b600081359050610cc281610c9c565b92915050565b600067ffffffffffffffff821115610ce357610ce2610a28565b5b602082029050602081019050919050565b600080fd5b600067ffffffffffffffff821115610d1457610d13610a28565b5b610d1d82610a17565b9050602081019050919050565b82818337600083830152505050565b6000610d4c610d4784610cf9565b610a88565b905082815260208101848484011115610d6857610d67610cf4565b5b610d73848285610d2a565b509392505050565b600082601f830112610d9057610d8f610a12565b5b8135610da0848260208601610d39565b91505092915050565b6000610dbc610db784610cc8565b610a88565b90508083825260208201905060208402830185811115610ddf57610dde610acf565b5b835b81811015610e2657803567ffffffffffffffff811115610e0457610e03610a12565b5b808601610e118982610d7b565b85526020850194505050602081019050610de1565b5050509392505050565b600082601f830112610e4557610e44610a12565b5b8135610e55848260208601610da9565b91505092915050565b600080600080600080600060e0888a031215610e7d57610e7c61093b565b5b600088013567ffffffffffffffff811115610e9b57610e9a610940565b5b610ea78a828b01610b9b565b975050602088013567ffffffffffffffff811115610ec857610ec7610940565b5b610ed48a828b01610b9b565b965050604088013567ffffffffffffffff811115610ef557610ef4610940565b5b610f018a828b01610c5e565b955050606088013567ffffffffffffffff811115610f2257610f21610940565b5b610f2e8a828b01610c5e565b9450506080610f3f8a828b01610cb3565b93505060a0610f508a828b01610966565b92505060c088013567ffffffffffffffff811115610f7157610f70610940565b5b610f7d8a828b01610e30565b91505092959891949750929550565b60008060408385031215610fa357610fa261093b565b5b6000610fb185828601610966565b925050602083013567ffffffffffffffff811115610fd257610fd1610940565b5b610fde85828601610e30565b9150509250929050565b600080fd5b600080fd5b600060a0828403121561100857611007610fe8565b5b61101260a0610a88565b9050600082013567ffffffffffffffff81111561103257611031610fed565b5b61103e84828501610b9b565b600083015250602082013567ffffffffffffffff81111561106257611061610fed565b5b61106e84828501610b9b565b602083015250604082013567ffffffffffffffff81111561109257611091610fed565b5b61109e84828501610c5e565b604083015250606082013567ffffffffffffffff8111156110c2576110c1610fed565b5b6110ce84828501610c5e565b60608301525060806110e284828501610cb3565b60808301525092915050565b6000602082840312156111045761110361093b565b5b600082013567ffffffffffffffff81111561112257611121610940565b5b61112e84828501610ff2565b91505092915050565b600081519050919050565b600082825260208201905092915050565b60005b83811015611171578082015181840152602081019050611156565b60008484015250505050565b600061118882611137565b6111928185611142565b93506111a2818560208601611153565b6111ab81610a17565b840191505092915050565b600060208201905081810360008301526111d0818461117d565b905092915050565b600080604083850312156111ef576111ee61093b565b5b60006111fd85828601610966565b925050602083013567ffffffffffffffff81111561121e5761121d610940565b5b61122a85828601610d7b565b9150509250929050565b61123d81610af4565b82525050565b60006020820190506112586000830184611234565b92915050565b6000602082840312156112745761127361093b565b5b600061128284828501610b1d565b91505092915050565b600082825260208201905092915050565b7f426174636820696e646578206d69736d61746368000000000000000000000000600082015250565b60006112d260148361128b565b91506112dd8261129c565b602082019050919050565b60006020820190508181036000830152611301816112c5565b9050919050565b7f5369676e61747572657320766572696669636174696f6e206661696c65640000600082015250565b600061133e601e8361128b565b915061134982611308565b602082019050919050565b6000602082019050818103600083015261136d81611331565b9050919050565b7f4e487b7100000000000000000000000000000000000000000000000000000000600052603260045260246000fd5b7f4e487b7100000000000000000000000000000000000000000000000000000000600052601160045260246000fd5b60006113dd826109de565b91506113e8836109de565b9250828201905080821115611400576113ff6113a3565b5b92915050565b6000611411826109de565b91507fffffffffffffffffffffffffffffffffffffffffffffffffffffffffffffffff8203611443576114426113a3565b5b600182019050919050565b6000611459826109de565b9150611464836109de565b925082820390508181111561147c5761147b6113a3565b5b92915050565b600061148d82610c8c565b915061149883610c8c565b9250828201905063ffffffff8111156114b4576114b36113a3565b5b92915050565b60006114c5826109de565b91506114d0836109de565b92508282026114de816109de565b915082820484148315176114f5576114f46113a3565b5b5092915050565b7f4e487b7100000000000000000000000000000000000000000000000000000000600052601260045260246000fd5b6000611536826109de565b9150611541836109de565b925082611551576115506114fc565b5b828204905092915050565b600081519050919050565b600081905092915050565b6000819050602082019050919050565b61158b81610af4565b82525050565b600061159d8383611582565b60208301905092915050565b6000602082019050919050565b60006115c18261155c565b6115cb8185611567565b93506115d683611572565b8060005b838110156116075781516115ee8882611591565b97506115f9836115a9565b9250506001810190506115da565b5085935050505092915050565b600081519050919050565b600081905092915050565b6000819050602082019050919050565b61164381610945565b82525050565b6000611655838361163a565b60208301905092915050565b6000602082019050919050565b600061167982611614565b611683818561161f565b935061168e8361162a565b8060005b838110156116bf5781516116a68882611649565b97506116b183611661565b925050600181019050611692565b5085935050505092915050565b60008160e01b9050919050565b60006116e4826116cc565b9050919050565b6116fc6116f782610c8c565b6116d9565b82525050565b600061170e82886115b6565b915061171a82876115b6565b9150611726828661166e565b9150611732828561166e565b915061173e82846116eb565b6004820191508190509695505050505050565b600060ff82169050919050565b600061176982611751565b915061177483611751565b9250828201905060ff81111561178d5761178c6113a3565b5b92915050565b600081905092915050565b7f19457468657265756d205369676e6564204d6573736167653a0a333200000000600082015250565b60006117d4601c83611793565b91506117df8261179e565b601c82019050919050565b6000819050919050565b61180561180082610945565b6117ea565b82525050565b6000611816826117c7565b915061182282846117f4565b60208201915081905092915050565b61183a81610945565b82525050565b61184981611751565b82525050565b60006080820190506118646000830187611831565b6118716020830186611840565b61187e6040830185611831565b61188b6060830184611831565b9594505050505056fea26469706673582212206d6d393fd71e8dd96dcd08b5402f306457bc972b957180230e59a6ef8621998c64736f6c63430008120033","opcodes":"PUSH1 0x80 PUSH1 0x40 MSTORE CALLVALUE DUP1 ISZERO PUSH3 0x11 JUMPI PUSH1 0x0 DUP1 REVERT JUMPDEST POP PUSH1 0x40 MLOAD PUSH3 0x1CB4 CODESIZE SUB DUP1 PUSH3 0x1CB4 DUP4 CODECOPY DUP2 DUP2 ADD PUSH1 0x40 MSTORE DUP2 ADD SWAP1 PUSH3 0x37 SWAP2 SWAP1 PUSH3 0x2D4 JUMP JUMPDEST PUSH1 0x0 JUMPDEST DUP2 MLOAD DUP2 LT ISZERO PUSH3 0xCE JUMPI PUSH1 0x1 PUSH1 0x0 DUP1 DUP5 DUP5 DUP2 MLOAD DUP2 LT PUSH3 0x5F JUMPI PUSH3 0x5E PUSH3 0x325 JUMP JUMPDEST JUMPDEST PUSH1 0x20 MUL PUSH1 0x20 ADD ADD MLOAD PUSH20 0xFFFFFFFFFFFFFFFFFFFFFFFFFFFFFFFFFFFFFFFF AND PUSH20 0xFFFFFFFFFFFFFFFFFFFFFFFFFFFFFFFFFFFFFFFF AND DUP2 MSTORE PUSH1 0x20 ADD SWAP1 DUP2 MSTORE PUSH1 0x20 ADD PUSH1 0x0 KECCAK256 PUSH1 0x0 PUSH2 0x100 EXP DUP2 SLOAD DUP2 PUSH1 0xFF MUL NOT AND SWAP1 DUP4 ISZERO ISZERO MUL OR SWAP1 SSTORE POP DUP1 DUP1 PUSH3 0xC5 SWAP1 PUSH3 0x38D JUMP JUMPDEST SWAP2 POP POP PUSH3 0x3A JUMP JUMPDEST POP DUP1 MLOAD PUSH1 0x3 DUP2 SWAP1 SSTORE POP PUSH1 0x0 PUSH1 0x4 DUP2 SWAP1 SSTORE POP POP PUSH3 0x3DA JUMP JUMPDEST PUSH1 0x0 PUSH1 0x40 MLOAD SWAP1 POP SWAP1 JUMP JUMPDEST PUSH1 0x0 DUP1 REVERT JUMPDEST PUSH1 0x0 DUP1 REVERT JUMPDEST PUSH1 0x0 DUP1 REVERT JUMPDEST PUSH1 0x0 PUSH1 0x1F NOT PUSH1 0x1F DUP4 ADD AND SWAP1 POP SWAP2 SWAP1 POP JUMP JUMPDEST PUSH32 0x4E487B7100000000000000000000000000000000000000000000000000000000 PUSH1 0x0 MSTORE PUSH1 0x41 PUSH1 0x4 MSTORE PUSH1 0x24 PUSH1 0x0 REVERT JUMPDEST PUSH3 0x14A DUP3 PUSH3 0xFF JUMP JUMPDEST DUP2 ADD DUP2 DUP2 LT PUSH8 0xFFFFFFFFFFFFFFFF DUP3 GT OR ISZERO PUSH3 0x16C JUMPI PUSH3 0x16B PUSH3 0x110 JUMP JUMPDEST JUMPDEST DUP1 PUSH1 0x40 MSTORE POP POP POP JUMP JUMPDEST PUSH1 0x0 PUSH3 0x181 PUSH3 0xE6 JUMP JUMPDEST SWAP1 POP PUSH3 0x18F DUP3 DUP3 PUSH3 0x13F JUMP JUMPDEST SWAP2 SWAP1 POP JUMP JUMPDEST PUSH1 0x0 PUSH8 0xFFFFFFFFFFFFFFFF DUP3 GT ISZERO PUSH3 0x1B2 JUMPI PUSH3 0x1B1 PUSH3 0x110 JUMP JUMPDEST JUMPDEST PUSH1 0x20 DUP3 MUL SWAP1 POP PUSH1 0x20 DUP2 ADD SWAP1 POP SWAP2 SWAP1 POP JUMP JUMPDEST PUSH1 0x0 DUP1 REVERT JUMPDEST PUSH1 0x0 PUSH20 0xFFFFFFFFFFFFFFFFFFFFFFFFFFFFFFFFFFFFFFFF DUP3 AND SWAP1 POP SWAP2 SWAP1 POP JUMP JUMPDEST PUSH1 0x0 PUSH3 0x1F5 DUP3 PUSH3 0x1C8 JUMP JUMPDEST SWAP1 POP SWAP2 SWAP1 POP JUMP JUMPDEST PUSH3 0x207 DUP2 PUSH3 0x1E8 JUMP JUMPDEST DUP2 EQ PUSH3 0x213 JUMPI PUSH1 0x0 DUP1 REVERT JUMPDEST POP JUMP JUMPDEST PUSH1 0x0 DUP2 MLOAD SWAP1 POP PUSH3 0x227 DUP2 PUSH3 0x1FC JUMP JUMPDEST SWAP3 SWAP2 POP POP JUMP JUMPDEST PUSH1 0x0 PUSH3 0x244 PUSH3 0x23E DUP5 PUSH3 0x194 JUMP JUMPDEST PUSH3 0x175 JUMP JUMPDEST SWAP1 POP DUP1 DUP4 DUP3 MSTORE PUSH1 0x20 DUP3 ADD SWAP1 POP PUSH1 0x20 DUP5 MUL DUP4 ADD DUP6 DUP2 GT ISZERO PUSH3 0x26A JUMPI PUSH3 0x269 PUSH3 0x1C3 JUMP JUMPDEST JUMPDEST DUP4 JUMPDEST DUP2 DUP2 LT ISZERO PUSH3 0x297 JUMPI DUP1 PUSH3 0x282 DUP9 DUP3 PUSH3 0x216 JUMP JUMPDEST DUP5 MSTORE PUSH1 0x20 DUP5 ADD SWAP4 POP POP PUSH1 0x20 DUP2 ADD SWAP1 POP PUSH3 0x26C JUMP JUMPDEST POP POP POP SWAP4 SWAP3 POP POP POP JUMP JUMPDEST PUSH1 0x0 DUP3 PUSH1 0x1F DUP4 ADD SLT PUSH3 0x2B9 JUMPI PUSH3 0x2B8 PUSH3 0xFA JUMP JUMPDEST JUMPDEST DUP2 MLOAD PUSH3 0x2CB DUP5 DUP3 PUSH1 0x20 DUP7 ADD PUSH3 0x22D JUMP JUMPDEST SWAP2 POP POP SWAP3 SWAP2 POP POP JUMP JUMPDEST PUSH1 0x0 PUSH1 0x20 DUP3 DUP5 SUB SLT ISZERO PUSH3 0x2ED JUMPI PUSH3 0x2EC PUSH3 0xF0 JUMP JUMPDEST JUMPDEST PUSH1 0x0 DUP3 ADD MLOAD PUSH8 0xFFFFFFFFFFFFFFFF DUP2 GT ISZERO PUSH3 0x30E JUMPI PUSH3 0x30D PUSH3 0xF5 JUMP JUMPDEST JUMPDEST PUSH3 0x31C DUP5 DUP3 DUP6 ADD PUSH3 0x2A1 JUMP JUMPDEST SWAP2 POP POP SWAP3 SWAP2 POP POP JUMP JUMPDEST PUSH32 0x4E487B7100000000000000000000000000000000000000000000000000000000 PUSH1 0x0 MSTORE PUSH1 0x32 PUSH1 0x4 MSTORE PUSH1 0x24 PUSH1 0x0 REVERT JUMPDEST PUSH32 0x4E487B7100000000000000000000000000000000000000000000000000000000 PUSH1 0x0 MSTORE PUSH1 0x11 PUSH1 0x4 MSTORE PUSH1 0x24 PUSH1 0x0 REVERT JUMPDEST PUSH1 0x0 DUP2 SWAP1 POP SWAP2 SWAP1 POP JUMP JUMPDEST PUSH1 0x0 PUSH3 0x39A DUP3 PUSH3 0x383 JUMP JUMPDEST SWAP2 POP PUSH32 0xFFFFFFFFFFFFFFFFFFFFFFFFFFFFFFFFFFFFFFFFFFFFFFFFFFFFFFFFFFFFFFFF DUP3 SUB PUSH3 0x3CF JUMPI PUSH3 0x3CE PUSH3 0x354 JUMP JUMPDEST JUMPDEST PUSH1 0x1 DUP3 ADD SWAP1 POP SWAP2 SWAP1 POP JUMP JUMPDEST PUSH2 0x18CA DUP1 PUSH3 0x3EA PUSH1 0x0 CODECOPY PUSH1 0x0 RETURN INVALID PUSH1 0x80 PUSH1 0x40 MSTORE CALLVALUE DUP1 ISZERO PUSH2 0x10 JUMPI PUSH1 0x0 DUP1 REVERT JUMPDEST POP PUSH1 0x4 CALLDATASIZE LT PUSH2 0x93 JUMPI PUSH1 0x0 CALLDATALOAD PUSH1 0xE0 SHR DUP1 PUSH4 0x907A3EE3 GT PUSH2 0x66 JUMPI DUP1 PUSH4 0x907A3EE3 EQ PUSH2 0x132 JUMPI DUP1 PUSH4 0x97ABA7F9 EQ PUSH2 0x162 JUMPI DUP1 PUSH4 0x9CF4364B EQ PUSH2 0x192 JUMPI DUP1 PUSH4 0xA6A39EBD EQ PUSH2 0x1B0 JUMPI DUP1 PUSH4 0xAF7E59B9 EQ PUSH2 0x1E0 JUMPI PUSH2 0x93 JUMP JUMPDEST DUP1 PUSH4 0x56931AB0 EQ PUSH2 0x98 JUMPI DUP1 PUSH4 0x6090B30E EQ PUSH2 0xC8 JUMPI DUP1 PUSH4 0x705648C1 EQ PUSH2 0xE6 JUMPI DUP1 PUSH4 0x71986F06 EQ PUSH2 0x102 JUMPI JUMPDEST PUSH1 0x0 DUP1 REVERT JUMPDEST PUSH2 0xB2 PUSH1 0x4 DUP1 CALLDATASIZE SUB DUP2 ADD SWAP1 PUSH2 0xAD SWAP2 SWAP1 PUSH2 0x97B JUMP JUMPDEST PUSH2 0x210 JUMP JUMPDEST PUSH1 0x40 MLOAD PUSH2 0xBF SWAP2 SWAP1 PUSH2 0x9C3 JUMP JUMPDEST PUSH1 0x40 MLOAD DUP1 SWAP2 SUB SWAP1 RETURN JUMPDEST PUSH2 0xD0 PUSH2 0x230 JUMP JUMPDEST PUSH1 0x40 MLOAD PUSH2 0xDD SWAP2 SWAP1 PUSH2 0x9F7 JUMP JUMPDEST PUSH1 0x40 MLOAD DUP1 SWAP2 SUB SWAP1 RETURN JUMPDEST PUSH2 0x100 PUSH1 0x4 DUP1 CALLDATASIZE SUB DUP2 ADD SWAP1 PUSH2 0xFB SWAP2 SWAP1 PUSH2 0xE5E JUMP JUMPDEST PUSH2 0x236 JUMP JUMPDEST STOP JUMPDEST PUSH2 0x11C PUSH1 0x4 DUP1 CALLDATASIZE SUB DUP2 ADD SWAP1 PUSH2 0x117 SWAP2 SWAP1 PUSH2 0xF8C JUMP JUMPDEST PUSH2 0x662 JUMP JUMPDEST PUSH1 0x40 MLOAD PUSH2 0x129 SWAP2 SWAP1 PUSH2 0x9C3 JUMP JUMPDEST PUSH1 0x40 MLOAD DUP1 SWAP2 SUB SWAP1 RETURN JUMPDEST PUSH2 0x14C PUSH1 0x4 DUP1 CALLDATASIZE SUB DUP2 ADD SWAP1 PUSH2 0x147 SWAP2 SWAP1 PUSH2 0x10EE JUMP JUMPDEST PUSH2 0x7A7 JUMP JUMPDEST PUSH1 0x40 MLOAD PUSH2 0x159 SWAP2 SWAP1 PUSH2 0x11B6 JUMP JUMPDEST PUSH1 0x40 MLOAD DUP1 SWAP2 SUB SWAP1 RETURN JUMPDEST PUSH2 0x17C PUSH1 0x4 DUP1 CALLDATASIZE SUB DUP2 ADD SWAP1 PUSH2 0x177 SWAP2 SWAP1 PUSH2 0x11D8 JUMP JUMPDEST PUSH2 0x7EC JUMP JUMPDEST PUSH1 0x40 MLOAD PUSH2 0x189 SWAP2 SWAP1 PUSH2 0x1243 JUMP JUMPDEST PUSH1 0x40 MLOAD DUP1 SWAP2 SUB SWAP1 RETURN JUMPDEST PUSH2 0x19A PUSH2 0x8EB JUMP JUMPDEST PUSH1 0x40 MLOAD PUSH2 0x1A7 SWAP2 SWAP1 PUSH2 0x9F7 JUMP JUMPDEST PUSH1 0x40 MLOAD DUP1 SWAP2 SUB SWAP1 RETURN JUMPDEST PUSH2 0x1CA PUSH1 0x4 DUP1 CALLDATASIZE SUB DUP2 ADD SWAP1 PUSH2 0x1C5 SWAP2 SWAP1 PUSH2 0x97B JUMP JUMPDEST PUSH2 0x8F1 JUMP JUMPDEST PUSH1 0x40 MLOAD PUSH2 0x1D7 SWAP2 SWAP1 PUSH2 0x9C3 JUMP JUMPDEST PUSH1 0x40 MLOAD DUP1 SWAP2 SUB SWAP1 RETURN JUMPDEST PUSH2 0x1FA PUSH1 0x4 DUP1 CALLDATASIZE SUB DUP2 ADD SWAP1 PUSH2 0x1F5 SWAP2 SWAP1 PUSH2 0x125E JUMP JUMPDEST PUSH2 0x911 JUMP JUMPDEST PUSH1 0x40 MLOAD PUSH2 0x207 SWAP2 SWAP1 PUSH2 0x9C3 JUMP JUMPDEST PUSH1 0x40 MLOAD DUP1 SWAP2 SUB SWAP1 RETURN JUMPDEST PUSH1 0x2 PUSH1 0x20 MSTORE DUP1 PUSH1 0x0 MSTORE PUSH1 0x40 PUSH1 0x0 KECCAK256 PUSH1 0x0 SWAP2 POP SLOAD SWAP1 PUSH2 0x100 EXP SWAP1 DIV PUSH1 0xFF AND DUP2 JUMP JUMPDEST PUSH1 0x4 SLOAD DUP2 JUMP JUMPDEST PUSH1 0x0 PUSH1 0x40 MLOAD DUP1 PUSH1 0xA0 ADD PUSH1 0x40 MSTORE DUP1 DUP10 DUP2 MSTORE PUSH1 0x20 ADD DUP9 DUP2 MSTORE PUSH1 0x20 ADD DUP8 DUP2 MSTORE PUSH1 0x20 ADD DUP7 DUP2 MSTORE PUSH1 0x20 ADD DUP6 PUSH4 0xFFFFFFFF AND DUP2 MSTORE POP SWAP1 POP PUSH1 0x4 SLOAD DUP2 PUSH1 0x80 ADD MLOAD PUSH4 0xFFFFFFFF AND EQ PUSH2 0x2B5 JUMPI PUSH1 0x40 MLOAD PUSH32 0x8C379A000000000000000000000000000000000000000000000000000000000 DUP2 MSTORE PUSH1 0x4 ADD PUSH2 0x2AC SWAP1 PUSH2 0x12E8 JUMP JUMPDEST PUSH1 0x40 MLOAD DUP1 SWAP2 SUB SWAP1 REVERT JUMPDEST PUSH2 0x2BF DUP4 DUP4 PUSH2 0x662 JUMP JUMPDEST PUSH2 0x2FE JUMPI PUSH1 0x40 MLOAD PUSH32 0x8C379A000000000000000000000000000000000000000000000000000000000 DUP2 MSTORE PUSH1 0x4 ADD PUSH2 0x2F5 SWAP1 PUSH2 0x1354 JUMP JUMPDEST PUSH1 0x40 MLOAD DUP1 SWAP2 SUB SWAP1 REVERT JUMPDEST PUSH1 0x0 PUSH1 0x3 SLOAD SWAP1 POP PUSH1 0x0 JUMPDEST DUP3 PUSH1 0x0 ADD MLOAD MLOAD DUP2 LT ISZERO PUSH2 0x41B JUMPI PUSH1 0x0 DUP1 DUP5 PUSH1 0x0 ADD MLOAD DUP4 DUP2 MLOAD DUP2 LT PUSH2 0x32F JUMPI PUSH2 0x32E PUSH2 0x1374 JUMP JUMPDEST JUMPDEST PUSH1 0x20 MUL PUSH1 0x20 ADD ADD MLOAD PUSH20 0xFFFFFFFFFFFFFFFFFFFFFFFFFFFFFFFFFFFFFFFF AND PUSH20 0xFFFFFFFFFFFFFFFFFFFFFFFFFFFFFFFFFFFFFFFF AND DUP2 MSTORE PUSH1 0x20 ADD SWAP1 DUP2 MSTORE PUSH1 0x20 ADD PUSH1 0x0 KECCAK256 PUSH1 0x0 SWAP1 SLOAD SWAP1 PUSH2 0x100 EXP SWAP1 DIV PUSH1 0xFF AND PUSH2 0x408 JUMPI PUSH1 0x1 PUSH1 0x0 DUP1 DUP6 PUSH1 0x0 ADD MLOAD DUP5 DUP2 MLOAD DUP2 LT PUSH2 0x39F JUMPI PUSH2 0x39E PUSH2 0x1374 JUMP JUMPDEST JUMPDEST PUSH1 0x20 MUL PUSH1 0x20 ADD ADD MLOAD PUSH20 0xFFFFFFFFFFFFFFFFFFFFFFFFFFFFFFFFFFFFFFFF AND PUSH20 0xFFFFFFFFFFFFFFFFFFFFFFFFFFFFFFFFFFFFFFFF AND DUP2 MSTORE PUSH1 0x20 ADD SWAP1 DUP2 MSTORE PUSH1 0x20 ADD PUSH1 0x0 KECCAK256 PUSH1 0x0 PUSH2 0x100 EXP DUP2 SLOAD DUP2 PUSH1 0xFF MUL NOT AND SWAP1 DUP4 ISZERO ISZERO MUL OR SWAP1 SSTORE POP PUSH1 0x1 DUP3 PUSH2 0x405 SWAP2 SWAP1 PUSH2 0x13D2 JUMP JUMPDEST SWAP2 POP JUMPDEST DUP1 DUP1 PUSH2 0x413 SWAP1 PUSH2 0x1406 JUMP JUMPDEST SWAP2 POP POP PUSH2 0x308 JUMP JUMPDEST POP PUSH1 0x0 JUMPDEST DUP3 PUSH1 0x20 ADD MLOAD MLOAD DUP2 LT ISZERO PUSH2 0x52A JUMPI PUSH1 0x0 DUP1 DUP5 PUSH1 0x20 ADD MLOAD DUP4 DUP2 MLOAD DUP2 LT PUSH2 0x446 JUMPI PUSH2 0x445 PUSH2 0x1374 JUMP JUMPDEST JUMPDEST PUSH1 0x20 MUL PUSH1 0x20 ADD ADD MLOAD PUSH20 0xFFFFFFFFFFFFFFFFFFFFFFFFFFFFFFFFFFFFFFFF AND PUSH20 0xFFFFFFFFFFFFFFFFFFFFFFFFFFFFFFFFFFFFFFFF AND DUP2 MSTORE PUSH1 0x20 ADD SWAP1 DUP2 MSTORE PUSH1 0x20 ADD PUSH1 0x0 KECCAK256 PUSH1 0x0 SWAP1 SLOAD SWAP1 PUSH2 0x100 EXP SWAP1 DIV PUSH1 0xFF AND ISZERO PUSH2 0x517 JUMPI PUSH1 0x0 DUP1 DUP5 PUSH1 0x20 ADD MLOAD DUP4 DUP2 MLOAD DUP2 LT PUSH2 0x4B5 JUMPI PUSH2 0x4B4 PUSH2 0x1374 JUMP JUMPDEST JUMPDEST PUSH1 0x20 MUL PUSH1 0x20 ADD ADD MLOAD PUSH20 0xFFFFFFFFFFFFFFFFFFFFFFFFFFFFFFFFFFFFFFFF AND PUSH20 0xFFFFFFFFFFFFFFFFFFFFFFFFFFFFFFFFFFFFFFFF AND DUP2 MSTORE PUSH1 0x20 ADD SWAP1 DUP2 MSTORE PUSH1 0x20 ADD PUSH1 0x0 KECCAK256 PUSH1 0x0 PUSH2 0x100 EXP DUP2 SLOAD SWAP1 PUSH1 0xFF MUL NOT AND SWAP1 SSTORE PUSH1 0x1 DUP3 PUSH2 0x514 SWAP2 SWAP1 PUSH2 0x144E JUMP JUMPDEST SWAP2 POP JUMPDEST DUP1 DUP1 PUSH2 0x522 SWAP1 PUSH2 0x1406 JUMP JUMPDEST SWAP2 POP POP PUSH2 0x41F JUMP JUMPDEST POP DUP1 PUSH1 0x3 DUP2 SWAP1 SSTORE POP PUSH1 0x0 JUMPDEST DUP3 PUSH1 0x40 ADD MLOAD MLOAD DUP2 LT ISZERO PUSH2 0x59E JUMPI PUSH1 0x1 DUP1 PUSH1 0x0 DUP6 PUSH1 0x40 ADD MLOAD DUP5 DUP2 MLOAD DUP2 LT PUSH2 0x55E JUMPI PUSH2 0x55D PUSH2 0x1374 JUMP JUMPDEST JUMPDEST PUSH1 0x20 MUL PUSH1 0x20 ADD ADD MLOAD DUP2 MSTORE PUSH1 0x20 ADD SWAP1 DUP2 MSTORE PUSH1 0x20 ADD PUSH1 0x0 KECCAK256 PUSH1 0x0 PUSH2 0x100 EXP DUP2 SLOAD DUP2 PUSH1 0xFF MUL NOT AND SWAP1 DUP4 ISZERO ISZERO MUL OR SWAP1 SSTORE POP DUP1 DUP1 PUSH2 0x596 SWAP1 PUSH2 0x1406 JUMP JUMPDEST SWAP2 POP POP PUSH2 0x535 JUMP JUMPDEST POP PUSH1 0x0 JUMPDEST DUP3 PUSH1 0x60 ADD MLOAD MLOAD DUP2 LT ISZERO PUSH2 0x60C JUMPI PUSH1 0x1 PUSH1 0x2 PUSH1 0x0 DUP6 PUSH1 0x60 ADD MLOAD DUP5 DUP2 MLOAD DUP2 LT PUSH2 0x5CC JUMPI PUSH2 0x5CB PUSH2 0x1374 JUMP JUMPDEST JUMPDEST PUSH1 0x20 MUL PUSH1 0x20 ADD ADD MLOAD DUP2 MSTORE PUSH1 0x20 ADD SWAP1 DUP2 MSTORE PUSH1 0x20 ADD PUSH1 0x0 KECCAK256 PUSH1 0x0 PUSH2 0x100 EXP DUP2 SLOAD DUP2 PUSH1 0xFF MUL NOT AND SWAP1 DUP4 ISZERO ISZERO MUL OR SWAP1 SSTORE POP DUP1 DUP1 PUSH2 0x604 SWAP1 PUSH2 0x1406 JUMP JUMPDEST SWAP2 POP POP PUSH2 0x5A2 JUMP JUMPDEST POP PUSH1 0x1 DUP3 PUSH1 0x80 ADD MLOAD PUSH2 0x61E SWAP2 SWAP1 PUSH2 0x1482 JUMP JUMPDEST PUSH4 0xFFFFFFFF AND PUSH1 0x4 DUP2 SWAP1 SSTORE POP DUP4 PUSH32 0x5A0CFE6A3799C25127F59391FEFD2E36141A1DB850684AE89EFC6BA8ADD9CE06 PUSH1 0x40 MLOAD PUSH1 0x40 MLOAD DUP1 SWAP2 SUB SWAP1 LOG2 POP POP POP POP POP POP POP POP POP JUMP JUMPDEST PUSH1 0x0 DUP1 PUSH1 0x0 SWAP1 POP PUSH1 0x0 PUSH1 0x3 PUSH1 0x2 PUSH1 0x3 SLOAD PUSH2 0x67C SWAP2 SWAP1 PUSH2 0x14BA JUMP JUMPDEST PUSH2 0x686 SWAP2 SWAP1 PUSH2 0x152B JUMP JUMPDEST SWAP1 POP PUSH1 0x0 JUMPDEST DUP5 MLOAD DUP2 LT ISZERO PUSH2 0x77E JUMPI PUSH1 0x0 PUSH2 0x6BA DUP8 DUP8 DUP5 DUP2 MLOAD DUP2 LT PUSH2 0x6AD JUMPI PUSH2 0x6AC PUSH2 0x1374 JUMP JUMPDEST JUMPDEST PUSH1 0x20 MUL PUSH1 0x20 ADD ADD MLOAD PUSH2 0x7EC JUMP JUMPDEST SWAP1 POP PUSH1 0x0 PUSH20 0xFFFFFFFFFFFFFFFFFFFFFFFFFFFFFFFFFFFFFFFF AND DUP2 PUSH20 0xFFFFFFFFFFFFFFFFFFFFFFFFFFFFFFFFFFFFFFFF AND EQ ISZERO DUP1 ISZERO PUSH2 0x741 JUMPI POP PUSH1 0x0 DUP1 DUP3 PUSH20 0xFFFFFFFFFFFFFFFFFFFFFFFFFFFFFFFFFFFFFFFF AND PUSH20 0xFFFFFFFFFFFFFFFFFFFFFFFFFFFFFFFFFFFFFFFF AND DUP2 MSTORE PUSH1 0x20 ADD SWAP1 DUP2 MSTORE PUSH1 0x20 ADD PUSH1 0x0 KECCAK256 PUSH1 0x0 SWAP1 SLOAD SWAP1 PUSH2 0x100 EXP SWAP1 DIV PUSH1 0xFF AND JUMPDEST ISZERO PUSH2 0x76A JUMPI PUSH1 0x1 DUP5 PUSH2 0x753 SWAP2 SWAP1 PUSH2 0x13D2 JUMP JUMPDEST SWAP4 POP DUP3 DUP5 LT PUSH2 0x769 JUMPI PUSH1 0x1 SWAP5 POP POP POP POP POP PUSH2 0x7A1 JUMP JUMPDEST JUMPDEST POP DUP1 DUP1 PUSH2 0x776 SWAP1 PUSH2 0x1406 JUMP JUMPDEST SWAP2 POP POP PUSH2 0x68B JUMP JUMPDEST POP PUSH1 0x3 PUSH1 0x2 PUSH1 0x3 SLOAD PUSH2 0x790 SWAP2 SWAP1 PUSH2 0x14BA JUMP JUMPDEST PUSH2 0x79A SWAP2 SWAP1 PUSH2 0x152B JUMP JUMPDEST DUP3 GT SWAP3 POP POP POP JUMPDEST SWAP3 SWAP2 POP POP JUMP JUMPDEST PUSH1 0x60 DUP2 PUSH1 0x0 ADD MLOAD DUP3 PUSH1 0x20 ADD MLOAD DUP4 PUSH1 0x40 ADD MLOAD DUP5 PUSH1 0x60 ADD MLOAD DUP6 PUSH1 0x80 ADD MLOAD PUSH1 0x40 MLOAD PUSH1 0x20 ADD PUSH2 0x7D6 SWAP6 SWAP5 SWAP4 SWAP3 SWAP2 SWAP1 PUSH2 0x1702 JUMP JUMPDEST PUSH1 0x40 MLOAD PUSH1 0x20 DUP2 DUP4 SUB SUB DUP2 MSTORE SWAP1 PUSH1 0x40 MSTORE SWAP1 POP SWAP2 SWAP1 POP JUMP JUMPDEST PUSH1 0x0 DUP1 PUSH1 0x0 DUP1 PUSH1 0x41 DUP6 MLOAD EQ PUSH2 0x807 JUMPI PUSH1 0x0 SWAP4 POP POP POP POP PUSH2 0x8E5 JUMP JUMPDEST PUSH1 0x20 DUP6 ADD MLOAD SWAP3 POP PUSH1 0x40 DUP6 ADD MLOAD SWAP2 POP PUSH1 0x60 DUP6 ADD MLOAD PUSH1 0x0 BYTE SWAP1 POP PUSH1 0x1B DUP2 PUSH1 0xFF AND LT ISZERO PUSH2 0x83B JUMPI PUSH1 0x1B DUP2 PUSH2 0x838 SWAP2 SWAP1 PUSH2 0x175E JUMP JUMPDEST SWAP1 POP JUMPDEST PUSH1 0x1B DUP2 PUSH1 0xFF AND EQ ISZERO DUP1 ISZERO PUSH2 0x853 JUMPI POP PUSH1 0x1C DUP2 PUSH1 0xFF AND EQ ISZERO JUMPDEST ISZERO PUSH2 0x864 JUMPI PUSH1 0x0 SWAP4 POP POP POP POP PUSH2 0x8E5 JUMP JUMPDEST PUSH1 0x0 DUP7 PUSH1 0x40 MLOAD PUSH1 0x20 ADD PUSH2 0x877 SWAP2 SWAP1 PUSH2 0x180B JUMP JUMPDEST PUSH1 0x40 MLOAD PUSH1 0x20 DUP2 DUP4 SUB SUB DUP2 MSTORE SWAP1 PUSH1 0x40 MSTORE DUP1 MLOAD SWAP1 PUSH1 0x20 ADD KECCAK256 SWAP1 POP PUSH1 0x1 DUP2 DUP4 DUP7 DUP7 PUSH1 0x40 MLOAD PUSH1 0x0 DUP2 MSTORE PUSH1 0x20 ADD PUSH1 0x40 MSTORE PUSH1 0x40 MLOAD PUSH2 0x8B2 SWAP5 SWAP4 SWAP3 SWAP2 SWAP1 PUSH2 0x184F JUMP JUMPDEST PUSH1 0x20 PUSH1 0x40 MLOAD PUSH1 0x20 DUP2 SUB SWAP1 DUP1 DUP5 SUB SWAP1 DUP6 GAS STATICCALL ISZERO DUP1 ISZERO PUSH2 0x8D4 JUMPI RETURNDATASIZE PUSH1 0x0 DUP1 RETURNDATACOPY RETURNDATASIZE PUSH1 0x0 REVERT JUMPDEST POP POP POP PUSH1 0x20 PUSH1 0x40 MLOAD SUB MLOAD SWAP5 POP POP POP POP POP JUMPDEST SWAP3 SWAP2 POP POP JUMP JUMPDEST PUSH1 0x3 SLOAD DUP2 JUMP JUMPDEST PUSH1 0x1 PUSH1 0x20 MSTORE DUP1 PUSH1 0x0 MSTORE PUSH1 0x40 PUSH1 0x0 KECCAK256 PUSH1 0x0 SWAP2 POP SLOAD SWAP1 PUSH2 0x100 EXP SWAP1 DIV PUSH1 0xFF AND DUP2 JUMP JUMPDEST PUSH1 0x0 PUSH1 0x20 MSTORE DUP1 PUSH1 0x0 MSTORE PUSH1 0x40 PUSH1 0x0 KECCAK256 PUSH1 0x0 SWAP2 POP SLOAD SWAP1 PUSH2 0x100 EXP SWAP1 DIV PUSH1 0xFF AND DUP2 JUMP JUMPDEST PUSH1 0x0 PUSH1 0x40 MLOAD SWAP1 POP SWAP1 JUMP JUMPDEST PUSH1 0x0 DUP1 REVERT JUMPDEST PUSH1 0x0 DUP1 REVERT JUMPDEST PUSH1 0x0 DUP2 SWAP1 POP SWAP2 SWAP1 POP JUMP JUMPDEST PUSH2 0x958 DUP2 PUSH2 0x945 JUMP JUMPDEST DUP2 EQ PUSH2 0x963 JUMPI PUSH1 0x0 DUP1 REVERT JUMPDEST POP JUMP JUMPDEST PUSH1 0x0 DUP2 CALLDATALOAD SWAP1 POP PUSH2 0x975 DUP2 PUSH2 0x94F JUMP JUMPDEST SWAP3 SWAP2 POP POP JUMP JUMPDEST PUSH1 0x0 PUSH1 0x20 DUP3 DUP5 SUB SLT ISZERO PUSH2 0x991 JUMPI PUSH2 0x990 PUSH2 0x93B JUMP JUMPDEST JUMPDEST PUSH1 0x0 PUSH2 0x99F DUP5 DUP3 DUP6 ADD PUSH2 0x966 JUMP JUMPDEST SWAP2 POP POP SWAP3 SWAP2 POP POP JUMP JUMPDEST PUSH1 0x0 DUP2 ISZERO ISZERO SWAP1 POP SWAP2 SWAP1 POP JUMP JUMPDEST PUSH2 0x9BD DUP2 PUSH2 0x9A8 JUMP JUMPDEST DUP3 MSTORE POP POP JUMP JUMPDEST PUSH1 0x0 PUSH1 0x20 DUP3 ADD SWAP1 POP PUSH2 0x9D8 PUSH1 0x0 DUP4 ADD DUP5 PUSH2 0x9B4 JUMP JUMPDEST SWAP3 SWAP2 POP POP JUMP JUMPDEST PUSH1 0x0 DUP2 SWAP1 POP SWAP2 SWAP1 POP JUMP JUMPDEST PUSH2 0x9F1 DUP2 PUSH2 0x9DE JUMP JUMPDEST DUP3 MSTORE POP POP JUMP JUMPDEST PUSH1 0x0 PUSH1 0x20 DUP3 ADD SWAP1 POP PUSH2 0xA0C PUSH1 0x0 DUP4 ADD DUP5 PUSH2 0x9E8 JUMP JUMPDEST SWAP3 SWAP2 POP POP JUMP JUMPDEST PUSH1 0x0 DUP1 REVERT JUMPDEST PUSH1 0x0 PUSH1 0x1F NOT PUSH1 0x1F DUP4 ADD AND SWAP1 POP SWAP2 SWAP1 POP JUMP JUMPDEST PUSH32 0x4E487B7100000000000000000000000000000000000000000000000000000000 PUSH1 0x0 MSTORE PUSH1 0x41 PUSH1 0x4 MSTORE PUSH1 0x24 PUSH1 0x0 REVERT JUMPDEST PUSH2 0xA60 DUP3 PUSH2 0xA17 JUMP JUMPDEST DUP2 ADD DUP2 DUP2 LT PUSH8 0xFFFFFFFFFFFFFFFF DUP3 GT OR ISZERO PUSH2 0xA7F JUMPI PUSH2 0xA7E PUSH2 0xA28 JUMP JUMPDEST JUMPDEST DUP1 PUSH1 0x40 MSTORE POP POP POP JUMP JUMPDEST PUSH1 0x0 PUSH2 0xA92 PUSH2 0x931 JUMP JUMPDEST SWAP1 POP PUSH2 0xA9E DUP3 DUP3 PUSH2 0xA57 JUMP JUMPDEST SWAP2 SWAP1 POP JUMP JUMPDEST PUSH1 0x0 PUSH8 0xFFFFFFFFFFFFFFFF DUP3 GT ISZERO PUSH2 0xABE JUMPI PUSH2 0xABD PUSH2 0xA28 JUMP JUMPDEST JUMPDEST PUSH1 0x20 DUP3 MUL SWAP1 POP PUSH1 0x20 DUP2 ADD SWAP1 POP SWAP2 SWAP1 POP JUMP JUMPDEST PUSH1 0x0 DUP1 REVERT JUMPDEST PUSH1 0x0 PUSH20 0xFFFFFFFFFFFFFFFFFFFFFFFFFFFFFFFFFFFFFFFF DUP3 AND SWAP1 POP SWAP2 SWAP1 POP JUMP JUMPDEST PUSH1 0x0 PUSH2 0xAFF DUP3 PUSH2 0xAD4 JUMP JUMPDEST SWAP1 POP SWAP2 SWAP1 POP JUMP JUMPDEST PUSH2 0xB0F DUP2 PUSH2 0xAF4 JUMP JUMPDEST DUP2 EQ PUSH2 0xB1A JUMPI PUSH1 0x0 DUP1 REVERT JUMPDEST POP JUMP JUMPDEST PUSH1 0x0 DUP2 CALLDATALOAD SWAP1 POP PUSH2 0xB2C DUP2 PUSH2 0xB06 JUMP JUMPDEST SWAP3 SWAP2 POP POP JUMP JUMPDEST PUSH1 0x0 PUSH2 0xB45 PUSH2 0xB40 DUP5 PUSH2 0xAA3 JUMP JUMPDEST PUSH2 0xA88 JUMP JUMPDEST SWAP1 POP DUP1 DUP4 DUP3 MSTORE PUSH1 0x20 DUP3 ADD SWAP1 POP PUSH1 0x20 DUP5 MUL DUP4 ADD DUP6 DUP2 GT ISZERO PUSH2 0xB68 JUMPI PUSH2 0xB67 PUSH2 0xACF JUMP JUMPDEST JUMPDEST DUP4 JUMPDEST DUP2 DUP2 LT ISZERO PUSH2 0xB91 JUMPI DUP1 PUSH2 0xB7D DUP9 DUP3 PUSH2 0xB1D JUMP JUMPDEST DUP5 MSTORE PUSH1 0x20 DUP5 ADD SWAP4 POP POP PUSH1 0x20 DUP2 ADD SWAP1 POP PUSH2 0xB6A JUMP JUMPDEST POP POP POP SWAP4 SWAP3 POP POP POP JUMP JUMPDEST PUSH1 0x0 DUP3 PUSH1 0x1F DUP4 ADD SLT PUSH2 0xBB0 JUMPI PUSH2 0xBAF PUSH2 0xA12 JUMP JUMPDEST JUMPDEST DUP2 CALLDATALOAD PUSH2 0xBC0 DUP5 DUP3 PUSH1 0x20 DUP7 ADD PUSH2 0xB32 JUMP JUMPDEST SWAP2 POP POP SWAP3 SWAP2 POP POP JUMP JUMPDEST PUSH1 0x0 PUSH8 0xFFFFFFFFFFFFFFFF DUP3 GT ISZERO PUSH2 0xBE4 JUMPI PUSH2 0xBE3 PUSH2 0xA28 JUMP JUMPDEST JUMPDEST PUSH1 0x20 DUP3 MUL SWAP1 POP PUSH1 0x20 DUP2 ADD SWAP1 POP SWAP2 SWAP1 POP JUMP JUMPDEST PUSH1 0x0 PUSH2 0xC08 PUSH2 0xC03 DUP5 PUSH2 0xBC9 JUMP JUMPDEST PUSH2 0xA88 JUMP JUMPDEST SWAP1 POP DUP1 DUP4 DUP3 MSTORE PUSH1 0x20 DUP3 ADD SWAP1 POP PUSH1 0x20 DUP5 MUL DUP4 ADD DUP6 DUP2 GT ISZERO PUSH2 0xC2B JUMPI PUSH2 0xC2A PUSH2 0xACF JUMP JUMPDEST JUMPDEST DUP4 JUMPDEST DUP2 DUP2 LT ISZERO PUSH2 0xC54 JUMPI DUP1 PUSH2 0xC40 DUP9 DUP3 PUSH2 0x966 JUMP JUMPDEST DUP5 MSTORE PUSH1 0x20 DUP5 ADD SWAP4 POP POP PUSH1 0x20 DUP2 ADD SWAP1 POP PUSH2 0xC2D JUMP JUMPDEST POP POP POP SWAP4 SWAP3 POP POP POP JUMP JUMPDEST PUSH1 0x0 DUP3 PUSH1 0x1F DUP4 ADD SLT PUSH2 0xC73 JUMPI PUSH2 0xC72 PUSH2 0xA12 JUMP JUMPDEST JUMPDEST DUP2 CALLDATALOAD PUSH2 0xC83 DUP5 DUP3 PUSH1 0x20 DUP7 ADD PUSH2 0xBF5 JUMP JUMPDEST SWAP2 POP POP SWAP3 SWAP2 POP POP JUMP JUMPDEST PUSH1 0x0 PUSH4 0xFFFFFFFF DUP3 AND SWAP1 POP SWAP2 SWAP1 POP JUMP JUMPDEST PUSH2 0xCA5 DUP2 PUSH2 0xC8C JUMP JUMPDEST DUP2 EQ PUSH2 0xCB0 JUMPI PUSH1 0x0 DUP1 REVERT JUMPDEST POP JUMP JUMPDEST PUSH1 0x0 DUP2 CALLDATALOAD SWAP1 POP PUSH2 0xCC2 DUP2 PUSH2 0xC9C JUMP JUMPDEST SWAP3 SWAP2 POP POP JUMP JUMPDEST PUSH1 0x0 PUSH8 0xFFFFFFFFFFFFFFFF DUP3 GT ISZERO PUSH2 0xCE3 JUMPI PUSH2 0xCE2 PUSH2 0xA28 JUMP JUMPDEST JUMPDEST PUSH1 0x20 DUP3 MUL SWAP1 POP PUSH1 0x20 DUP2 ADD SWAP1 POP SWAP2 SWAP1 POP JUMP JUMPDEST PUSH1 0x0 DUP1 REVERT JUMPDEST PUSH1 0x0 PUSH8 0xFFFFFFFFFFFFFFFF DUP3 GT ISZERO PUSH2 0xD14 JUMPI PUSH2 0xD13 PUSH2 0xA28 JUMP JUMPDEST JUMPDEST PUSH2 0xD1D DUP3 PUSH2 0xA17 JUMP JUMPDEST SWAP1 POP PUSH1 0x20 DUP2 ADD SWAP1 POP SWAP2 SWAP1 POP JUMP JUMPDEST DUP3 DUP2 DUP4 CALLDATACOPY PUSH1 0x0 DUP4 DUP4 ADD MSTORE POP POP POP JUMP JUMPDEST PUSH1 0x0 PUSH2 0xD4C PUSH2 0xD47 DUP5 PUSH2 0xCF9 JUMP JUMPDEST PUSH2 0xA88 JUMP JUMPDEST SWAP1 POP DUP3 DUP2 MSTORE PUSH1 0x20 DUP2 ADD DUP5 DUP5 DUP5 ADD GT ISZERO PUSH2 0xD68 JUMPI PUSH2 0xD67 PUSH2 0xCF4 JUMP JUMPDEST JUMPDEST PUSH2 0xD73 DUP5 DUP3 DUP6 PUSH2 0xD2A JUMP JUMPDEST POP SWAP4 SWAP3 POP POP POP JUMP JUMPDEST PUSH1 0x0 DUP3 PUSH1 0x1F DUP4 ADD SLT PUSH2 0xD90 JUMPI PUSH2 0xD8F PUSH2 0xA12 JUMP JUMPDEST JUMPDEST DUP2 CALLDATALOAD PUSH2 0xDA0 DUP5 DUP3 PUSH1 0x20 DUP7 ADD PUSH2 0xD39 JUMP JUMPDEST SWAP2 POP POP SWAP3 SWAP2 POP POP JUMP JUMPDEST PUSH1 0x0 PUSH2 0xDBC PUSH2 0xDB7 DUP5 PUSH2 0xCC8 JUMP JUMPDEST PUSH2 0xA88 JUMP JUMPDEST SWAP1 POP DUP1 DUP4 DUP3 MSTORE PUSH1 0x20 DUP3 ADD SWAP1 POP PUSH1 0x20 DUP5 MUL DUP4 ADD DUP6 DUP2 GT ISZERO PUSH2 0xDDF JUMPI PUSH2 0xDDE PUSH2 0xACF JUMP JUMPDEST JUMPDEST DUP4 JUMPDEST DUP2 DUP2 LT ISZERO PUSH2 0xE26 JUMPI DUP1 CALLDATALOAD PUSH8 0xFFFFFFFFFFFFFFFF DUP2 GT ISZERO PUSH2 0xE04 JUMPI PUSH2 0xE03 PUSH2 0xA12 JUMP JUMPDEST JUMPDEST DUP1 DUP7 ADD PUSH2 0xE11 DUP10 DUP3 PUSH2 0xD7B JUMP JUMPDEST DUP6 MSTORE PUSH1 0x20 DUP6 ADD SWAP5 POP POP POP PUSH1 0x20 DUP2 ADD SWAP1 POP PUSH2 0xDE1 JUMP JUMPDEST POP POP POP SWAP4 SWAP3 POP POP POP JUMP JUMPDEST PUSH1 0x0 DUP3 PUSH1 0x1F DUP4 ADD SLT PUSH2 0xE45 JUMPI PUSH2 0xE44 PUSH2 0xA12 JUMP JUMPDEST JUMPDEST DUP2 CALLDATALOAD PUSH2 0xE55 DUP5 DUP3 PUSH1 0x20 DUP7 ADD PUSH2 0xDA9 JUMP JUMPDEST SWAP2 POP POP SWAP3 SWAP2 POP POP JUMP JUMPDEST PUSH1 0x0 DUP1 PUSH1 0x0 DUP1 PUSH1 0x0 DUP1 PUSH1 0x0 PUSH1 0xE0 DUP9 DUP11 SUB SLT ISZERO PUSH2 0xE7D JUMPI PUSH2 0xE7C PUSH2 0x93B JUMP JUMPDEST JUMPDEST PUSH1 0x0 DUP9 ADD CALLDATALOAD PUSH8 0xFFFFFFFFFFFFFFFF DUP2 GT ISZERO PUSH2 0xE9B JUMPI PUSH2 0xE9A PUSH2 0x940 JUMP JUMPDEST JUMPDEST PUSH2 0xEA7 DUP11 DUP3 DUP12 ADD PUSH2 0xB9B JUMP JUMPDEST SWAP8 POP POP PUSH1 0x20 DUP9 ADD CALLDATALOAD PUSH8 0xFFFFFFFFFFFFFFFF DUP2 GT ISZERO PUSH2 0xEC8 JUMPI PUSH2 0xEC7 PUSH2 0x940 JUMP JUMPDEST JUMPDEST PUSH2 0xED4 DUP11 DUP3 DUP12 ADD PUSH2 0xB9B JUMP JUMPDEST SWAP7 POP POP PUSH1 0x40 DUP9 ADD CALLDATALOAD PUSH8 0xFFFFFFFFFFFFFFFF DUP2 GT ISZERO PUSH2 0xEF5 JUMPI PUSH2 0xEF4 PUSH2 0x940 JUMP JUMPDEST JUMPDEST PUSH2 0xF01 DUP11 DUP3 DUP12 ADD PUSH2 0xC5E JUMP JUMPDEST SWAP6 POP POP PUSH1 0x60 DUP9 ADD CALLDATALOAD PUSH8 0xFFFFFFFFFFFFFFFF DUP2 GT ISZERO PUSH2 0xF22 JUMPI PUSH2 0xF21 PUSH2 0x940 JUMP JUMPDEST JUMPDEST PUSH2 0xF2E DUP11 DUP3 DUP12 ADD PUSH2 0xC5E JUMP JUMPDEST SWAP5 POP POP PUSH1 0x80 PUSH2 0xF3F DUP11 DUP3 DUP12 ADD PUSH2 0xCB3 JUMP JUMPDEST SWAP4 POP POP PUSH1 0xA0 PUSH2 0xF50 DUP11 DUP3 DUP12 ADD PUSH2 0x966 JUMP JUMPDEST SWAP3 POP POP PUSH1 0xC0 DUP9 ADD CALLDATALOAD PUSH8 0xFFFFFFFFFFFFFFFF DUP2 GT ISZERO PUSH2 0xF71 JUMPI PUSH2 0xF70 PUSH2 0x940 JUMP JUMPDEST JUMPDEST PUSH2 0xF7D DUP11 DUP3 DUP12 ADD PUSH2 0xE30 JUMP JUMPDEST SWAP2 POP POP SWAP3 SWAP6 SWAP9 SWAP2 SWAP5 SWAP8 POP SWAP3 SWAP6 POP JUMP JUMPDEST PUSH1 0x0 DUP1 PUSH1 0x40 DUP4 DUP6 SUB SLT ISZERO PUSH2 0xFA3 JUMPI PUSH2 0xFA2 PUSH2 0x93B JUMP JUMPDEST JUMPDEST PUSH1 0x0 PUSH2 0xFB1 DUP6 DUP3 DUP7 ADD PUSH2 0x966 JUMP JUMPDEST SWAP3 POP POP PUSH1 0x20 DUP4 ADD CALLDATALOAD PUSH8 0xFFFFFFFFFFFFFFFF DUP2 GT ISZERO PUSH2 0xFD2 JUMPI PUSH2 0xFD1 PUSH2 0x940 JUMP JUMPDEST JUMPDEST PUSH2 0xFDE DUP6 DUP3 DUP7 ADD PUSH2 0xE30 JUMP JUMPDEST SWAP2 POP POP SWAP3 POP SWAP3 SWAP1 POP JUMP JUMPDEST PUSH1 0x0 DUP1 REVERT JUMPDEST PUSH1 0x0 DUP1 REVERT JUMPDEST PUSH1 0x0 PUSH1 0xA0 DUP3 DUP5 SUB SLT ISZERO PUSH2 0x1008 JUMPI PUSH2 0x1007 PUSH2 0xFE8 JUMP JUMPDEST JUMPDEST PUSH2 0x1012 PUSH1 0xA0 PUSH2 0xA88 JUMP JUMPDEST SWAP1 POP PUSH1 0x0 DUP3 ADD CALLDATALOAD PUSH8 0xFFFFFFFFFFFFFFFF DUP2 GT ISZERO PUSH2 0x1032 JUMPI PUSH2 0x1031 PUSH2 0xFED JUMP JUMPDEST JUMPDEST PUSH2 0x103E DUP5 DUP3 DUP6 ADD PUSH2 0xB9B JUMP JUMPDEST PUSH1 0x0 DUP4 ADD MSTORE POP PUSH1 0x20 DUP3 ADD CALLDATALOAD PUSH8 0xFFFFFFFFFFFFFFFF DUP2 GT ISZERO PUSH2 0x1062 JUMPI PUSH2 0x1061 PUSH2 0xFED JUMP JUMPDEST JUMPDEST PUSH2 0x106E DUP5 DUP3 DUP6 ADD PUSH2 0xB9B JUMP JUMPDEST PUSH1 0x20 DUP4 ADD MSTORE POP PUSH1 0x40 DUP3 ADD CALLDATALOAD PUSH8 0xFFFFFFFFFFFFFFFF DUP2 GT ISZERO PUSH2 0x1092 JUMPI PUSH2 0x1091 PUSH2 0xFED JUMP JUMPDEST JUMPDEST PUSH2 0x109E DUP5 DUP3 DUP6 ADD PUSH2 0xC5E JUMP JUMPDEST PUSH1 0x40 DUP4 ADD MSTORE POP PUSH1 0x60 DUP3 ADD CALLDATALOAD PUSH8 0xFFFFFFFFFFFFFFFF DUP2 GT ISZERO PUSH2 0x10C2 JUMPI PUSH2 0x10C1 PUSH2 0xFED JUMP JUMPDEST JUMPDEST PUSH2 0x10CE DUP5 DUP3 DUP6 ADD PUSH2 0xC5E JUMP JUMPDEST PUSH1 0x60 DUP4 ADD MSTORE POP PUSH1 0x80 PUSH2 0x10E2 DUP5 DUP3 DUP6 ADD PUSH2 0xCB3 JUMP JUMPDEST PUSH1 0x80 DUP4 ADD MSTORE POP SWAP3 SWAP2 POP POP JUMP JUMPDEST PUSH1 0x0 PUSH1 0x20 DUP3 DUP5 SUB SLT ISZERO PUSH2 0x1104 JUMPI PUSH2 0x1103 PUSH2 0x93B JUMP JUMPDEST JUMPDEST PUSH1 0x0 DUP3 ADD CALLDATALOAD PUSH8 0xFFFFFFFFFFFFFFFF DUP2 GT ISZERO PUSH2 0x1122 JUMPI PUSH2 0x1121 PUSH2 0x940 JUMP JUMPDEST JUMPDEST PUSH2 0x112E DUP5 DUP3 DUP6 ADD PUSH2 0xFF2 JUMP JUMPDEST SWAP2 POP POP SWAP3 SWAP2 POP POP JUMP JUMPDEST PUSH1 0x0 DUP2 MLOAD SWAP1 POP SWAP2 SWAP1 POP JUMP JUMPDEST PUSH1 0x0 DUP3 DUP3 MSTORE PUSH1 0x20 DUP3 ADD SWAP1 POP SWAP3 SWAP2 POP POP JUMP JUMPDEST PUSH1 0x0 JUMPDEST DUP4 DUP2 LT ISZERO PUSH2 0x1171 JUMPI DUP1 DUP3 ADD MLOAD DUP2 DUP5 ADD MSTORE PUSH1 0x20 DUP2 ADD SWAP1 POP PUSH2 0x1156 JUMP JUMPDEST PUSH1 0x0 DUP5 DUP5 ADD MSTORE POP POP POP POP JUMP JUMPDEST PUSH1 0x0 PUSH2 0x1188 DUP3 PUSH2 0x1137 JUMP JUMPDEST PUSH2 0x1192 DUP2 DUP6 PUSH2 0x1142 JUMP JUMPDEST SWAP4 POP PUSH2 0x11A2 DUP2 DUP6 PUSH1 0x20 DUP7 ADD PUSH2 0x1153 JUMP JUMPDEST PUSH2 0x11AB DUP2 PUSH2 0xA17 JUMP JUMPDEST DUP5 ADD SWAP2 POP POP SWAP3 SWAP2 POP POP JUMP JUMPDEST PUSH1 0x0 PUSH1 0x20 DUP3 ADD SWAP1 POP DUP2 DUP2 SUB PUSH1 0x0 DUP4 ADD MSTORE PUSH2 0x11D0 DUP2 DUP5 PUSH2 0x117D JUMP JUMPDEST SWAP1 POP SWAP3 SWAP2 POP POP JUMP JUMPDEST PUSH1 0x0 DUP1 PUSH1 0x40 DUP4 DUP6 SUB SLT ISZERO PUSH2 0x11EF JUMPI PUSH2 0x11EE PUSH2 0x93B JUMP JUMPDEST JUMPDEST PUSH1 0x0 PUSH2 0x11FD DUP6 DUP3 DUP7 ADD PUSH2 0x966 JUMP JUMPDEST SWAP3 POP POP PUSH1 0x20 DUP4 ADD CALLDATALOAD PUSH8 0xFFFFFFFFFFFFFFFF DUP2 GT ISZERO PUSH2 0x121E JUMPI PUSH2 0x121D PUSH2 0x940 JUMP JUMPDEST JUMPDEST PUSH2 0x122A DUP6 DUP3 DUP7 ADD PUSH2 0xD7B JUMP JUMPDEST SWAP2 POP POP SWAP3 POP SWAP3 SWAP1 POP JUMP JUMPDEST PUSH2 0x123D DUP2 PUSH2 0xAF4 JUMP JUMPDEST DUP3 MSTORE POP POP JUMP JUMPDEST PUSH1 0x0 PUSH1 0x20 DUP3 ADD SWAP1 POP PUSH2 0x1258 PUSH1 0x0 DUP4 ADD DUP5 PUSH2 0x1234 JUMP JUMPDEST SWAP3 SWAP2 POP POP JUMP JUMPDEST PUSH1 0x0 PUSH1 0x20 DUP3 DUP5 SUB SLT ISZERO PUSH2 0x1274 JUMPI PUSH2 0x1273 PUSH2 0x93B JUMP JUMPDEST JUMPDEST PUSH1 0x0 PUSH2 0x1282 DUP5 DUP3 DUP6 ADD PUSH2 0xB1D JUMP JUMPDEST SWAP2 POP POP SWAP3 SWAP2 POP POP JUMP JUMPDEST PUSH1 0x0 DUP3 DUP3 MSTORE PUSH1 0x20 DUP3 ADD SWAP1 POP SWAP3 SWAP2 POP POP JUMP JUMPDEST PUSH32 0x426174636820696E646578206D69736D61746368000000000000000000000000 PUSH1 0x0 DUP3 ADD MSTORE POP JUMP JUMPDEST PUSH1 0x0 PUSH2 0x12D2 PUSH1 0x14 DUP4 PUSH2 0x128B JUMP JUMPDEST SWAP2 POP PUSH2 0x12DD DUP3 PUSH2 0x129C JUMP JUMPDEST PUSH1 0x20 DUP3 ADD SWAP1 POP SWAP2 SWAP1 POP JUMP JUMPDEST PUSH1 0x0 PUSH1 0x20 DUP3 ADD SWAP1 POP DUP2 DUP2 SUB PUSH1 0x0 DUP4 ADD MSTORE PUSH2 0x1301 DUP2 PUSH2 0x12C5 JUMP JUMPDEST SWAP1 POP SWAP2 SWAP1 POP JUMP JUMPDEST PUSH32 0x5369676E61747572657320766572696669636174696F6E206661696C65640000 PUSH1 0x0 DUP3 ADD MSTORE POP JUMP JUMPDEST PUSH1 0x0 PUSH2 0x133E PUSH1 0x1E DUP4 PUSH2 0x128B JUMP JUMPDEST SWAP2 POP PUSH2 0x1349 DUP3 PUSH2 0x1308 JUMP JUMPDEST PUSH1 0x20 DUP3 ADD SWAP1 POP SWAP2 SWAP1 POP JUMP JUMPDEST PUSH1 0x0 PUSH1 0x20 DUP3 ADD SWAP1 POP DUP2 DUP2 SUB PUSH1 0x0 DUP4 ADD MSTORE PUSH2 0x136D DUP2 PUSH2 0x1331 JUMP JUMPDEST SWAP1 POP SWAP2 SWAP1 POP JUMP JUMPDEST PUSH32 0x4E487B7100000000000000000000000000000000000000000000000000000000 PUSH1 0x0 MSTORE PUSH1 0x32 PUSH1 0x4 MSTORE PUSH1 0x24 PUSH1 0x0 REVERT JUMPDEST PUSH32 0x4E487B7100000000000000000000000000000000000000000000000000000000 PUSH1 0x0 MSTORE PUSH1 0x11 PUSH1 0x4 MSTORE PUSH1 0x24 PUSH1 0x0 REVERT JUMPDEST PUSH1 0x0 PUSH2 0x13DD DUP3 PUSH2 0x9DE JUMP JUMPDEST SWAP2 POP PUSH2 0x13E8 DUP4 PUSH2 0x9DE JUMP JUMPDEST SWAP3 POP DUP3 DUP3 ADD SWAP1 POP DUP1 DUP3 GT ISZERO PUSH2 0x1400 JUMPI PUSH2 0x13FF PUSH2 0x13A3 JUMP JUMPDEST JUMPDEST SWAP3 SWAP2 POP POP JUMP JUMPDEST PUSH1 0x0 PUSH2 0x1411 DUP3 PUSH2 0x9DE JUMP JUMPDEST SWAP2 POP PUSH32 0xFFFFFFFFFFFFFFFFFFFFFFFFFFFFFFFFFFFFFFFFFFFFFFFFFFFFFFFFFFFFFFFF DUP3 SUB PUSH2 0x1443 JUMPI PUSH2 0x1442 PUSH2 0x13A3 JUMP JUMPDEST JUMPDEST PUSH1 0x1 DUP3 ADD SWAP1 POP SWAP2 SWAP1 POP JUMP JUMPDEST PUSH1 0x0 PUSH2 0x1459 DUP3 PUSH2 0x9DE JUMP JUMPDEST SWAP2 POP PUSH2 0x1464 DUP4 PUSH2 0x9DE JUMP JUMPDEST SWAP3 POP DUP3 DUP3 SUB SWAP1 POP DUP2 DUP2 GT ISZERO PUSH2 0x147C JUMPI PUSH2 0x147B PUSH2 0x13A3 JUMP JUMPDEST JUMPDEST SWAP3 SWAP2 POP POP JUMP JUMPDEST PUSH1 0x0 PUSH2 0x148D DUP3 PUSH2 0xC8C JUMP JUMPDEST SWAP2 POP PUSH2 0x1498 DUP4 PUSH2 0xC8C JUMP JUMPDEST SWAP3 POP DUP3 DUP3 ADD SWAP1 POP PUSH4 0xFFFFFFFF DUP2 GT ISZERO PUSH2 0x14B4 JUMPI PUSH2 0x14B3 PUSH2 0x13A3 JUMP JUMPDEST JUMPDEST SWAP3 SWAP2 POP POP JUMP JUMPDEST PUSH1 0x0 PUSH2 0x14C5 DUP3 PUSH2 0x9DE JUMP JUMPDEST SWAP2 POP PUSH2 0x14D0 DUP4 PUSH2 0x9DE JUMP JUMPDEST SWAP3 POP DUP3 DUP3 MUL PUSH2 0x14DE DUP2 PUSH2 0x9DE JUMP JUMPDEST SWAP2 POP DUP3 DUP3 DIV DUP5 EQ DUP4 ISZERO OR PUSH2 0x14F5 JUMPI PUSH2 0x14F4 PUSH2 0x13A3 JUMP JUMPDEST JUMPDEST POP SWAP3 SWAP2 POP POP JUMP JUMPDEST PUSH32 0x4E487B7100000000000000000000000000000000000000000000000000000000 PUSH1 0x0 MSTORE PUSH1 0x12 PUSH1 0x4 MSTORE PUSH1 0x24 PUSH1 0x0 REVERT JUMPDEST PUSH1 0x0 PUSH2 0x1536 DUP3 PUSH2 0x9DE JUMP JUMPDEST SWAP2 POP PUSH2 0x1541 DUP4 PUSH2 0x9DE JUMP JUMPDEST SWAP3 POP DUP3 PUSH2 0x1551 JUMPI PUSH2 0x1550 PUSH2 0x14FC JUMP JUMPDEST JUMPDEST DUP3 DUP3 DIV SWAP1 POP SWAP3 SWAP2 POP POP JUMP JUMPDEST PUSH1 0x0 DUP2 MLOAD SWAP1 POP SWAP2 SWAP1 POP JUMP JUMPDEST PUSH1 0x0 DUP2 SWAP1 POP SWAP3 SWAP2 POP POP JUMP JUMPDEST PUSH1 0x0 DUP2 SWAP1 POP PUSH1 0x20 DUP3 ADD SWAP1 POP SWAP2 SWAP1 POP JUMP JUMPDEST PUSH2 0x158B DUP2 PUSH2 0xAF4 JUMP JUMPDEST DUP3 MSTORE POP POP JUMP JUMPDEST PUSH1 0x0 PUSH2 0x159D DUP4 DUP4 PUSH2 0x1582 JUMP JUMPDEST PUSH1 0x20 DUP4 ADD SWAP1 POP SWAP3 SWAP2 POP POP JUMP JUMPDEST PUSH1 0x0 PUSH1 0x20 DUP3 ADD SWAP1 POP SWAP2 SWAP1 POP JUMP JUMPDEST PUSH1 0x0 PUSH2 0x15C1 DUP3 PUSH2 0x155C JUMP JUMPDEST PUSH2 0x15CB DUP2 DUP6 PUSH2 0x1567 JUMP JUMPDEST SWAP4 POP PUSH2 0x15D6 DUP4 PUSH2 0x1572 JUMP JUMPDEST DUP1 PUSH1 0x0 JUMPDEST DUP4 DUP2 LT ISZERO PUSH2 0x1607 JUMPI DUP2 MLOAD PUSH2 0x15EE DUP9 DUP3 PUSH2 0x1591 JUMP JUMPDEST SWAP8 POP PUSH2 0x15F9 DUP4 PUSH2 0x15A9 JUMP JUMPDEST SWAP3 POP POP PUSH1 0x1 DUP2 ADD SWAP1 POP PUSH2 0x15DA JUMP JUMPDEST POP DUP6 SWAP4 POP POP POP POP SWAP3 SWAP2 POP POP JUMP JUMPDEST PUSH1 0x0 DUP2 MLOAD SWAP1 POP SWAP2 SWAP1 POP JUMP JUMPDEST PUSH1 0x0 DUP2 SWAP1 POP SWAP3 SWAP2 POP POP JUMP JUMPDEST PUSH1 0x0 DUP2 SWAP1 POP PUSH1 0x20 DUP3 ADD SWAP1 POP SWAP2 SWAP1 POP JUMP JUMPDEST PUSH2 0x1643 DUP2 PUSH2 0x945 JUMP JUMPDEST DUP3 MSTORE POP POP JUMP JUMPDEST PUSH1 0x0 PUSH2 0x1655 DUP4 DUP4 PUSH2 0x163A JUMP JUMPDEST PUSH1 0x20 DUP4 ADD SWAP1 POP SWAP3 SWAP2 POP POP JUMP JUMPDEST PUSH1 0x0 PUSH1 0x20 DUP3 ADD SWAP1 POP SWAP2 SWAP1 POP JUMP JUMPDEST PUSH1 0x0 PUSH2 0x1679 DUP3 PUSH2 0x1614 JUMP JUMPDEST PUSH2 0x1683 DUP2 DUP6 PUSH2 0x161F JUMP JUMPDEST SWAP4 POP PUSH2 0x168E DUP4 PUSH2 0x162A JUMP JUMPDEST DUP1 PUSH1 0x0 JUMPDEST DUP4 DUP2 LT ISZERO PUSH2 0x16BF JUMPI DUP2 MLOAD PUSH2 0x16A6 DUP9 DUP3 PUSH2 0x1649 JUMP JUMPDEST SWAP8 POP PUSH2 0x16B1 DUP4 PUSH2 0x1661 JUMP JUMPDEST SWAP3 POP POP PUSH1 0x1 DUP2 ADD SWAP1 POP PUSH2 0x1692 JUMP JUMPDEST POP DUP6 SWAP4 POP POP POP POP SWAP3 SWAP2 POP POP JUMP JUMPDEST PUSH1 0x0 DUP2 PUSH1 0xE0 SHL SWAP1 POP SWAP2 SWAP1 POP JUMP JUMPDEST PUSH1 0x0 PUSH2 0x16E4 DUP3 PUSH2 0x16CC JUMP JUMPDEST SWAP1 POP SWAP2 SWAP1 POP JUMP JUMPDEST PUSH2 0x16FC PUSH2 0x16F7 DUP3 PUSH2 0xC8C JUMP JUMPDEST PUSH2 0x16D9 JUMP JUMPDEST DUP3 MSTORE POP POP JUMP JUMPDEST PUSH1 0x0 PUSH2 0x170E DUP3 DUP9 PUSH2 0x15B6 JUMP JUMPDEST SWAP2 POP PUSH2 0x171A DUP3 DUP8 PUSH2 0x15B6 JUMP JUMPDEST SWAP2 POP PUSH2 0x1726 DUP3 DUP7 PUSH2 0x166E JUMP JUMPDEST SWAP2 POP PUSH2 0x1732 DUP3 DUP6 PUSH2 0x166E JUMP JUMPDEST SWAP2 POP PUSH2 0x173E DUP3 DUP5 PUSH2 0x16EB JUMP JUMPDEST PUSH1 0x4 DUP3 ADD SWAP2 POP DUP2 SWAP1 POP SWAP7 SWAP6 POP POP POP POP POP POP JUMP JUMPDEST PUSH1 0x0 PUSH1 0xFF DUP3 AND SWAP1 POP SWAP2 SWAP1 POP JUMP JUMPDEST PUSH1 0x0 PUSH2 0x1769 DUP3 PUSH2 0x1751 JUMP JUMPDEST SWAP2 POP PUSH2 0x1774 DUP4 PUSH2 0x1751 JUMP JUMPDEST SWAP3 POP DUP3 DUP3 ADD SWAP1 POP PUSH1 0xFF DUP2 GT ISZERO PUSH2 0x178D JUMPI PUSH2 0x178C PUSH2 0x13A3 JUMP JUMPDEST JUMPDEST SWAP3 SWAP2 POP POP JUMP JUMPDEST PUSH1 0x0 DUP2 SWAP1 POP SWAP3 SWAP2 POP POP JUMP JUMPDEST PUSH32 0x19457468657265756D205369676E6564204D6573736167653A0A333200000000 PUSH1 0x0 DUP3 ADD MSTORE POP JUMP JUMPDEST PUSH1 0x0 PUSH2 0x17D4 PUSH1 0x1C DUP4 PUSH2 0x1793 JUMP JUMPDEST SWAP2 POP PUSH2 0x17DF DUP3 PUSH2 0x179E JUMP JUMPDEST PUSH1 0x1C DUP3 ADD SWAP1 POP SWAP2 SWAP1 POP JUMP JUMPDEST PUSH1 0x0 DUP2 SWAP1 POP SWAP2 SWAP1 POP JUMP JUMPDEST PUSH2 0x1805 PUSH2 0x1800 DUP3 PUSH2 0x945 JUMP JUMPDEST PUSH2 0x17EA JUMP JUMPDEST DUP3 MSTORE POP POP JUMP JUMPDEST PUSH1 0x0 PUSH2 0x1816 DUP3 PUSH2 0x17C7 JUMP JUMPDEST SWAP2 POP PUSH2 0x1822 DUP3 DUP5 PUSH2 0x17F4 JUMP JUMPDEST PUSH1 0x20 DUP3 ADD SWAP2 POP DUP2 SWAP1 POP SWAP3 SWAP2 POP POP JUMP JUMPDEST PUSH2 0x183A DUP2 PUSH2 0x945 JUMP JUMPDEST DUP3 MSTORE POP POP JUMP JUMPDEST PUSH2 0x1849 DUP2 PUSH2 0x1751 JUMP JUMPDEST DUP3 MSTORE POP POP JUMP JUMPDEST PUSH1 0x0 PUSH1 0x80 DUP3 ADD SWAP1 POP PUSH2 0x1864 PUSH1 0x0 DUP4 ADD DUP8 PUSH2 0x1831 JUMP JUMPDEST PUSH2 0x1871 PUSH1 0x20 DUP4 ADD DUP7 PUSH2 0x1840 JUMP JUMPDEST PUSH2 0x187E PUSH1 0x40 DUP4 ADD DUP6 PUSH2 0x1831 JUMP JUMPDEST PUSH2 0x188B PUSH1 0x60 DUP4 ADD DUP5 PUSH2 0x1831 JUMP JUMPDEST SWAP6 SWAP5 POP POP POP POP POP JUMP INVALID LOG2 PUSH5 0x6970667358 0x22 SLT KECCAK256 PUSH14 0x6D393FD71E8DD96DCD08B5402F30 PUSH5 0x57BC972B95 PUSH18 0x80230E59A6EF8621998C64736F6C63430008 SLT STOP CALLER "},"methodIdentifiers":{"batchEncodePacked((address[],address[],bytes32[],bytes32[],uint32))":"907a3ee3","committedSfxMap(bytes32)":"a6a39ebd","committeeSize()":"9cf4364b","currentBatchIndex()":"6090b30e","current_committee(address)":"af7e59b9","receiveAttestationBatch(address[],address[],bytes32[],bytes32[],uint32,bytes32,bytes[])":"705648c1","recoverSigner(bytes32,bytes)":"97aba7f9","revertedSfxMap(bytes32)":"56931ab0","verifySignedByActiveCommittee(bytes32,bytes[])":"71986f06"}}}}}