{
  "_format": "hh-sol-artifact-1",
  "contractName": "AttestationsVerifier",
  "sourceName": "contracts/attestationsVerifier.sol",
  "abi": [
    {
      "inputs": [
        {
          "internalType": "address[]",
          "name": "initialCommittee",
          "type": "address[]"
        }
      ],
      "stateMutability": "nonpayable",
      "type": "constructor"
    },
    {
      "anonymous": false,
      "inputs": [
        {
          "indexed": true,
          "internalType": "bytes32",
          "name": "batchHash",
          "type": "bytes32"
        },
        {
          "indexed": false,
          "internalType": "uint256",
          "name": "numSignatures",
          "type": "uint256"
        }
      ],
      "name": "BatchApplied",
      "type": "event"
    },
    {
      "anonymous": false,
      "inputs": [
        {
          "indexed": true,
          "internalType": "address",
          "name": "signer",
          "type": "address"
        }
      ],
      "name": "SignerEmitted",
      "type": "event"
    },
    {
      "anonymous": false,
      "inputs": [
        {
          "indexed": true,
          "internalType": "address",
          "name": "signer",
          "type": "address"
        }
      ],
      "name": "SignerNotInCommittee",
      "type": "event"
    },
    {
      "inputs": [
        {
          "components": [
            {
              "internalType": "address[]",
              "name": "nextCommittee",
              "type": "address[]"
            },
            {
              "internalType": "address[]",
              "name": "bannedCommittee",
              "type": "address[]"
            },
            {
              "internalType": "bytes32[]",
              "name": "committedSfx",
              "type": "bytes32[]"
            },
            {
              "internalType": "bytes32[]",
              "name": "revertedSfx",
              "type": "bytes32[]"
            },
            {
              "internalType": "uint32",
              "name": "index",
              "type": "uint32"
            }
          ],
          "internalType": "struct AttestationsVerifier.Batch",
          "name": "batch",
          "type": "tuple"
        }
      ],
      "name": "batchEncodePacked",
      "outputs": [
        {
          "internalType": "bytes",
          "name": "",
          "type": "bytes"
        }
      ],
      "stateMutability": "pure",
      "type": "function"
    },
    {
      "inputs": [
        {
          "internalType": "bytes32",
          "name": "",
          "type": "bytes32"
        }
      ],
      "name": "committedSfxMap",
      "outputs": [
        {
          "internalType": "bool",
          "name": "",
          "type": "bool"
        }
      ],
      "stateMutability": "view",
      "type": "function"
    },
    {
      "inputs": [],
      "name": "committeeSize",
      "outputs": [
        {
          "internalType": "uint256",
          "name": "",
          "type": "uint256"
        }
      ],
      "stateMutability": "view",
      "type": "function"
    },
    {
      "inputs": [],
      "name": "currentBatchIndex",
      "outputs": [
        {
          "internalType": "uint256",
          "name": "",
          "type": "uint256"
        }
      ],
      "stateMutability": "view",
      "type": "function"
    },
    {
      "inputs": [
        {
          "internalType": "address",
          "name": "",
          "type": "address"
        }
      ],
      "name": "current_committee",
      "outputs": [
        {
          "internalType": "bool",
          "name": "",
          "type": "bool"
        }
      ],
      "stateMutability": "view",
      "type": "function"
    },
    {
      "inputs": [
        {
          "internalType": "address[]",
          "name": "nextCommittee",
          "type": "address[]"
        },
        {
          "internalType": "address[]",
          "name": "bannedCommittee",
          "type": "address[]"
        },
        {
          "internalType": "bytes32[]",
          "name": "committedSfx",
          "type": "bytes32[]"
        },
        {
          "internalType": "bytes32[]",
          "name": "revertedSfx",
          "type": "bytes32[]"
        },
        {
          "internalType": "uint32",
          "name": "index",
          "type": "uint32"
        },
        {
          "internalType": "bytes32",
          "name": "expectedBatchHash",
          "type": "bytes32"
        },
        {
          "internalType": "bytes[]",
          "name": "signatures",
          "type": "bytes[]"
        }
      ],
      "name": "receiveAttestationBatch",
      "outputs": [],
      "stateMutability": "nonpayable",
      "type": "function"
    },
    {
      "inputs": [
        {
          "internalType": "bytes32",
          "name": "messageHash",
          "type": "bytes32"
        },
        {
          "internalType": "bytes",
          "name": "signature",
          "type": "bytes"
        }
      ],
      "name": "recoverSigner",
      "outputs": [
        {
          "internalType": "address",
          "name": "",
          "type": "address"
        }
      ],
      "stateMutability": "pure",
      "type": "function"
    },
    {
      "inputs": [
        {
          "internalType": "bytes32",
          "name": "",
          "type": "bytes32"
        }
      ],
      "name": "revertedSfxMap",
      "outputs": [
        {
          "internalType": "bool",
          "name": "",
          "type": "bool"
        }
      ],
      "stateMutability": "view",
      "type": "function"
    },
    {
      "inputs": [
        {
          "internalType": "bytes32",
          "name": "messageHash",
          "type": "bytes32"
        },
        {
          "internalType": "bytes[]",
          "name": "signatures",
          "type": "bytes[]"
        }
      ],
      "name": "verifySignedByActiveCommittee",
      "outputs": [
        {
          "internalType": "bool",
          "name": "",
          "type": "bool"
        }
      ],
      "stateMutability": "nonpayable",
      "type": "function"
    }
  ],
  "bytecode": "0x60806040523480156200001157600080fd5b5060405162001cc038038062001cc08339818101604052810190620000379190620002d4565b60005b8151811015620000ce5760016000808484815181106200005f576200005e62000325565b5b602002602001015173ffffffffffffffffffffffffffffffffffffffff1673ffffffffffffffffffffffffffffffffffffffff16815260200190815260200160002060006101000a81548160ff0219169083151502179055508080620000c5906200038d565b9150506200003a565b508051600381905550600060048190555050620003da565b6000604051905090565b600080fd5b600080fd5b600080fd5b6000601f19601f8301169050919050565b7f4e487b7100000000000000000000000000000000000000000000000000000000600052604160045260246000fd5b6200014a82620000ff565b810181811067ffffffffffffffff821117156200016c576200016b62000110565b5b80604052505050565b600062000181620000e6565b90506200018f82826200013f565b919050565b600067ffffffffffffffff821115620001b257620001b162000110565b5b602082029050602081019050919050565b600080fd5b600073ffffffffffffffffffffffffffffffffffffffff82169050919050565b6000620001f582620001c8565b9050919050565b6200020781620001e8565b81146200021357600080fd5b50565b6000815190506200022781620001fc565b92915050565b6000620002446200023e8462000194565b62000175565b905080838252602082019050602084028301858111156200026a5762000269620001c3565b5b835b8181101562000297578062000282888262000216565b8452602084019350506020810190506200026c565b5050509392505050565b600082601f830112620002b957620002b8620000fa565b5b8151620002cb8482602086016200022d565b91505092915050565b600060208284031215620002ed57620002ec620000f0565b5b600082015167ffffffffffffffff8111156200030e576200030d620000f5565b5b6200031c84828501620002a1565b91505092915050565b7f4e487b7100000000000000000000000000000000000000000000000000000000600052603260045260246000fd5b7f4e487b7100000000000000000000000000000000000000000000000000000000600052601160045260246000fd5b6000819050919050565b60006200039a8262000383565b91507fffffffffffffffffffffffffffffffffffffffffffffffffffffffffffffffff8203620003cf57620003ce62000354565b5b600182019050919050565b6118d680620003ea6000396000f3fe608060405234801561001057600080fd5b50600436106100935760003560e01c8063907a3ee311610066578063907a3ee31461013257806397aba7f9146101625780639cf4364b14610192578063a6a39ebd146101b0578063af7e59b9146101e057610093565b806356931ab0146100985780636090b30e146100c8578063705648c1146100e657806371986f0614610102575b600080fd5b6100b260048036038101906100ad9190610987565b610210565b6040516100bf91906109cf565b60405180910390f35b6100d0610230565b6040516100dd9190610a03565b60405180910390f35b61010060048036038101906100fb9190610e6a565b610236565b005b61011c60048036038101906101179190610f98565b61066e565b60405161012991906109cf565b60405180910390f35b61014c600480360381019061014791906110fa565b6107b3565b60405161015991906111c2565b60405180910390f35b61017c600480360381019061017791906111e4565b6107f8565b604051610189919061124f565b60405180910390f35b61019a6108f7565b6040516101a79190610a03565b60405180910390f35b6101ca60048036038101906101c59190610987565b6108fd565b6040516101d791906109cf565b60405180910390f35b6101fa60048036038101906101f5919061126a565b61091d565b60405161020791906109cf565b60405180910390f35b60026020528060005260406000206000915054906101000a900460ff1681565b60045481565b60006040518060a001604052808981526020018881526020018781526020018681526020018563ffffffff168152509050610271838361066e565b6102b0576040517f08c379a00000000000000000000000000000000000000000000000000000000081526004016102a7906112f4565b60405180910390fd5b600454816080015163ffffffff16146102fe576040517f08c379a00000000000000000000000000000000000000000000000000000000081526004016102f590611360565b60405180910390fd5b6000600354905060005b82600001515181101561041b576000808460000151838151811061032f5761032e611380565b5b602002602001015173ffffffffffffffffffffffffffffffffffffffff1673ffffffffffffffffffffffffffffffffffffffff16815260200190815260200160002060009054906101000a900460ff166104085760016000808560000151848151811061039f5761039e611380565b5b602002602001015173ffffffffffffffffffffffffffffffffffffffff1673ffffffffffffffffffffffffffffffffffffffff16815260200190815260200160002060006101000a81548160ff02191690831515021790555060018261040591906113de565b91505b808061041390611412565b915050610308565b5060005b82602001515181101561052a576000808460200151838151811061044657610445611380565b5b602002602001015173ffffffffffffffffffffffffffffffffffffffff1673ffffffffffffffffffffffffffffffffffffffff16815260200190815260200160002060009054906101000a900460ff161561051757600080846020015183815181106104b5576104b4611380565b5b602002602001015173ffffffffffffffffffffffffffffffffffffffff1673ffffffffffffffffffffffffffffffffffffffff16815260200190815260200160002060006101000a81549060ff0219169055600182610514919061145a565b91505b808061052290611412565b91505061041f565b508060038190555060005b82604001515181101561059e5760018060008560400151848151811061055e5761055d611380565b5b6020026020010151815260200190815260200160002060006101000a81548160ff021916908315150217905550808061059690611412565b915050610535565b5060005b82606001515181101561060c57600160026000856060015184815181106105cc576105cb611380565b5b6020026020010151815260200190815260200160002060006101000a81548160ff021916908315150217905550808061060490611412565b9150506105a2565b506001826080015161061e919061148e565b63ffffffff16600481905550837f8fd79dabe485d4f469a99a2eb29c960b712a82439c406aa08f049b5863da5b50845160405161065b9190610a03565b60405180910390a2505050505050505050565b6000806000905060006003600260035461068891906114c6565b6106929190611537565b905060005b845181101561078a5760006106c6878784815181106106b9576106b8611380565b5b60200260200101516107f8565b9050600073ffffffffffffffffffffffffffffffffffffffff168173ffffffffffffffffffffffffffffffffffffffff161415801561074d57506000808273ffffffffffffffffffffffffffffffffffffffff1673ffffffffffffffffffffffffffffffffffffffff16815260200190815260200160002060009054906101000a900460ff165b156107765760018461075f91906113de565b93508284106107755760019450505050506107ad565b5b50808061078290611412565b915050610697565b506003600260035461079c91906114c6565b6107a69190611537565b8211925050505b92915050565b6060816000015182602001518360400151846060015185608001516040516020016107e295949392919061170e565b6040516020818303038152906040529050919050565b600080600080604185511461081357600093505050506108f1565b6020850151925060408501519150606085015160001a9050601b8160ff16101561084757601b81610844919061176a565b90505b601b8160ff161415801561085f5750601c8160ff1614155b1561087057600093505050506108f1565b6000866040516020016108839190611817565b604051602081830303815290604052805190602001209050600181838686604051600081526020016040526040516108be949392919061185b565b6020604051602081039080840390855afa1580156108e0573d6000803e3d6000fd5b505050602060405103519450505050505b92915050565b60035481565b60016020528060005260406000206000915054906101000a900460ff1681565b60006020528060005260406000206000915054906101000a900460ff1681565b6000604051905090565b600080fd5b600080fd5b6000819050919050565b61096481610951565b811461096f57600080fd5b50565b6000813590506109818161095b565b92915050565b60006020828403121561099d5761099c610947565b5b60006109ab84828501610972565b91505092915050565b60008115159050919050565b6109c9816109b4565b82525050565b60006020820190506109e460008301846109c0565b92915050565b6000819050919050565b6109fd816109ea565b82525050565b6000602082019050610a1860008301846109f4565b92915050565b600080fd5b6000601f19601f8301169050919050565b7f4e487b7100000000000000000000000000000000000000000000000000000000600052604160045260246000fd5b610a6c82610a23565b810181811067ffffffffffffffff82111715610a8b57610a8a610a34565b5b80604052505050565b6000610a9e61093d565b9050610aaa8282610a63565b919050565b600067ffffffffffffffff821115610aca57610ac9610a34565b5b602082029050602081019050919050565b600080fd5b600073ffffffffffffffffffffffffffffffffffffffff82169050919050565b6000610b0b82610ae0565b9050919050565b610b1b81610b00565b8114610b2657600080fd5b50565b600081359050610b3881610b12565b92915050565b6000610b51610b4c84610aaf565b610a94565b90508083825260208201905060208402830185811115610b7457610b73610adb565b5b835b81811015610b9d5780610b898882610b29565b845260208401935050602081019050610b76565b5050509392505050565b600082601f830112610bbc57610bbb610a1e565b5b8135610bcc848260208601610b3e565b91505092915050565b600067ffffffffffffffff821115610bf057610bef610a34565b5b602082029050602081019050919050565b6000610c14610c0f84610bd5565b610a94565b90508083825260208201905060208402830185811115610c3757610c36610adb565b5b835b81811015610c605780610c4c8882610972565b845260208401935050602081019050610c39565b5050509392505050565b600082601f830112610c7f57610c7e610a1e565b5b8135610c8f848260208601610c01565b91505092915050565b600063ffffffff82169050919050565b610cb181610c98565b8114610cbc57600080fd5b50565b600081359050610cce81610ca8565b92915050565b600067ffffffffffffffff821115610cef57610cee610a34565b5b602082029050602081019050919050565b600080fd5b600067ffffffffffffffff821115610d2057610d1f610a34565b5b610d2982610a23565b9050602081019050919050565b82818337600083830152505050565b6000610d58610d5384610d05565b610a94565b905082815260208101848484011115610d7457610d73610d00565b5b610d7f848285610d36565b509392505050565b600082601f830112610d9c57610d9b610a1e565b5b8135610dac848260208601610d45565b91505092915050565b6000610dc8610dc384610cd4565b610a94565b90508083825260208201905060208402830185811115610deb57610dea610adb565b5b835b81811015610e3257803567ffffffffffffffff811115610e1057610e0f610a1e565b5b808601610e1d8982610d87565b85526020850194505050602081019050610ded565b5050509392505050565b600082601f830112610e5157610e50610a1e565b5b8135610e61848260208601610db5565b91505092915050565b600080600080600080600060e0888a031215610e8957610e88610947565b5b600088013567ffffffffffffffff811115610ea757610ea661094c565b5b610eb38a828b01610ba7565b975050602088013567ffffffffffffffff811115610ed457610ed361094c565b5b610ee08a828b01610ba7565b965050604088013567ffffffffffffffff811115610f0157610f0061094c565b5b610f0d8a828b01610c6a565b955050606088013567ffffffffffffffff811115610f2e57610f2d61094c565b5b610f3a8a828b01610c6a565b9450506080610f4b8a828b01610cbf565b93505060a0610f5c8a828b01610972565b92505060c088013567ffffffffffffffff811115610f7d57610f7c61094c565b5b610f898a828b01610e3c565b91505092959891949750929550565b60008060408385031215610faf57610fae610947565b5b6000610fbd85828601610972565b925050602083013567ffffffffffffffff811115610fde57610fdd61094c565b5b610fea85828601610e3c565b9150509250929050565b600080fd5b600080fd5b600060a0828403121561101457611013610ff4565b5b61101e60a0610a94565b9050600082013567ffffffffffffffff81111561103e5761103d610ff9565b5b61104a84828501610ba7565b600083015250602082013567ffffffffffffffff81111561106e5761106d610ff9565b5b61107a84828501610ba7565b602083015250604082013567ffffffffffffffff81111561109e5761109d610ff9565b5b6110aa84828501610c6a565b604083015250606082013567ffffffffffffffff8111156110ce576110cd610ff9565b5b6110da84828501610c6a565b60608301525060806110ee84828501610cbf565b60808301525092915050565b6000602082840312156111105761110f610947565b5b600082013567ffffffffffffffff81111561112e5761112d61094c565b5b61113a84828501610ffe565b91505092915050565b600081519050919050565b600082825260208201905092915050565b60005b8381101561117d578082015181840152602081019050611162565b60008484015250505050565b600061119482611143565b61119e818561114e565b93506111ae81856020860161115f565b6111b781610a23565b840191505092915050565b600060208201905081810360008301526111dc8184611189565b905092915050565b600080604083850312156111fb576111fa610947565b5b600061120985828601610972565b925050602083013567ffffffffffffffff81111561122a5761122961094c565b5b61123685828601610d87565b9150509250929050565b61124981610b00565b82525050565b60006020820190506112646000830184611240565b92915050565b6000602082840312156112805761127f610947565b5b600061128e84828501610b29565b91505092915050565b600082825260208201905092915050565b7f5369676e61747572657320766572696669636174696f6e206661696c65640000600082015250565b60006112de601e83611297565b91506112e9826112a8565b602082019050919050565b6000602082019050818103600083015261130d816112d1565b9050919050565b7f426174636820696e646578206d69736d61746368000000000000000000000000600082015250565b600061134a601483611297565b915061135582611314565b602082019050919050565b600060208201905081810360008301526113798161133d565b9050919050565b7f4e487b7100000000000000000000000000000000000000000000000000000000600052603260045260246000fd5b7f4e487b7100000000000000000000000000000000000000000000000000000000600052601160045260246000fd5b60006113e9826109ea565b91506113f4836109ea565b925082820190508082111561140c5761140b6113af565b5b92915050565b600061141d826109ea565b91507fffffffffffffffffffffffffffffffffffffffffffffffffffffffffffffffff820361144f5761144e6113af565b5b600182019050919050565b6000611465826109ea565b9150611470836109ea565b9250828203905081811115611488576114876113af565b5b92915050565b600061149982610c98565b91506114a483610c98565b9250828201905063ffffffff8111156114c0576114bf6113af565b5b92915050565b60006114d1826109ea565b91506114dc836109ea565b92508282026114ea816109ea565b91508282048414831517611501576115006113af565b5b5092915050565b7f4e487b7100000000000000000000000000000000000000000000000000000000600052601260045260246000fd5b6000611542826109ea565b915061154d836109ea565b92508261155d5761155c611508565b5b828204905092915050565b600081519050919050565b600081905092915050565b6000819050602082019050919050565b61159781610b00565b82525050565b60006115a9838361158e565b60208301905092915050565b6000602082019050919050565b60006115cd82611568565b6115d78185611573565b93506115e28361157e565b8060005b838110156116135781516115fa888261159d565b9750611605836115b5565b9250506001810190506115e6565b5085935050505092915050565b600081519050919050565b600081905092915050565b6000819050602082019050919050565b61164f81610951565b82525050565b60006116618383611646565b60208301905092915050565b6000602082019050919050565b600061168582611620565b61168f818561162b565b935061169a83611636565b8060005b838110156116cb5781516116b28882611655565b97506116bd8361166d565b92505060018101905061169e565b5085935050505092915050565b60008160e01b9050919050565b60006116f0826116d8565b9050919050565b61170861170382610c98565b6116e5565b82525050565b600061171a82886115c2565b915061172682876115c2565b9150611732828661167a565b915061173e828561167a565b915061174a82846116f7565b6004820191508190509695505050505050565b600060ff82169050919050565b60006117758261175d565b91506117808361175d565b9250828201905060ff811115611799576117986113af565b5b92915050565b600081905092915050565b7f19457468657265756d205369676e6564204d6573736167653a0a333200000000600082015250565b60006117e0601c8361179f565b91506117eb826117aa565b601c82019050919050565b6000819050919050565b61181161180c82610951565b6117f6565b82525050565b6000611822826117d3565b915061182e8284611800565b60208201915081905092915050565b61184681610951565b82525050565b6118558161175d565b82525050565b6000608082019050611870600083018761183d565b61187d602083018661184c565b61188a604083018561183d565b611897606083018461183d565b9594505050505056fea26469706673582212209b886798b7c9c19dcb28b7e8c85bc457651028ca929fd509f6c05395b164b59164736f6c63430008120033",
  "linkReferences": {},
  "deployedLinkReferences": {}
}