{
  "_format": "hh-sol-artifact-1",
  "contractName": "AttestationsVerifier",
  "sourceName": "contracts/attestationsVerifier.sol",
  "abi": [
    {
      "inputs": [
        {
          "internalType": "address[]",
          "name": "initialCommittee",
          "type": "address[]"
        }
      ],
      "stateMutability": "nonpayable",
      "type": "constructor"
    },
    {
      "anonymous": false,
      "inputs": [
        {
          "indexed": true,
          "internalType": "bytes32",
          "name": "batchHash",
          "type": "bytes32"
        },
        {
          "indexed": false,
          "internalType": "uint256",
          "name": "numSignatures",
          "type": "uint256"
        }
      ],
      "name": "BatchApplied",
      "type": "event"
    },
    {
      "anonymous": false,
      "inputs": [
        {
          "indexed": true,
          "internalType": "address",
          "name": "signer",
          "type": "address"
        }
      ],
      "name": "SignerEmitted",
      "type": "event"
    },
    {
      "anonymous": false,
      "inputs": [
        {
          "indexed": true,
          "internalType": "address",
          "name": "signer",
          "type": "address"
        }
      ],
      "name": "SignerNotInCommittee",
      "type": "event"
    },
    {
      "inputs": [
        {
          "components": [
            {
              "internalType": "address[]",
              "name": "newCommittee",
              "type": "address[]"
            },
            {
              "internalType": "address[]",
              "name": "bannedCommittee",
              "type": "address[]"
            },
            {
              "internalType": "bytes32[]",
              "name": "confirmedSFXs",
              "type": "bytes32[]"
            },
            {
              "internalType": "bytes32[]",
              "name": "revertedSFXs",
              "type": "bytes32[]"
            },
            {
              "internalType": "uint32",
              "name": "index",
              "type": "uint32"
            }
          ],
          "internalType": "struct AttestationsVerifier.Batch",
          "name": "batch",
          "type": "tuple"
        }
      ],
      "name": "batchEncodePacked",
      "outputs": [
        {
          "internalType": "bytes",
          "name": "",
          "type": "bytes"
        }
      ],
      "stateMutability": "pure",
      "type": "function"
    },
    {
      "inputs": [],
      "name": "committeeSize",
      "outputs": [
        {
          "internalType": "uint256",
          "name": "",
          "type": "uint256"
        }
      ],
      "stateMutability": "view",
      "type": "function"
    },
    {
      "inputs": [
        {
          "internalType": "bytes32",
          "name": "",
          "type": "bytes32"
        }
      ],
      "name": "confirmedSFXsMap",
      "outputs": [
        {
          "internalType": "bool",
          "name": "",
          "type": "bool"
        }
      ],
      "stateMutability": "view",
      "type": "function"
    },
    {
      "inputs": [],
      "name": "currentBatchIndex",
      "outputs": [
        {
          "internalType": "uint256",
          "name": "",
          "type": "uint256"
        }
      ],
      "stateMutability": "view",
      "type": "function"
    },
    {
      "inputs": [
        {
          "internalType": "address",
          "name": "",
          "type": "address"
        }
      ],
      "name": "current_committee",
      "outputs": [
        {
          "internalType": "bool",
          "name": "",
          "type": "bool"
        }
      ],
      "stateMutability": "view",
      "type": "function"
    },
    {
      "inputs": [
        {
          "internalType": "address[]",
          "name": "newCommittee",
          "type": "address[]"
        },
        {
          "internalType": "address[]",
          "name": "bannedCommittee",
          "type": "address[]"
        },
        {
          "internalType": "bytes32[]",
          "name": "confirmedSFXs",
          "type": "bytes32[]"
        },
        {
          "internalType": "bytes32[]",
          "name": "revertedSFXs",
          "type": "bytes32[]"
        },
        {
          "internalType": "uint32",
          "name": "index",
          "type": "uint32"
        },
        {
          "internalType": "bytes32",
          "name": "expectedBatchHash",
          "type": "bytes32"
        },
        {
          "internalType": "bytes[]",
          "name": "signatures",
          "type": "bytes[]"
        }
      ],
      "name": "receiveAttestationBatch",
      "outputs": [],
      "stateMutability": "nonpayable",
      "type": "function"
    },
    {
      "inputs": [
        {
          "internalType": "bytes32",
          "name": "messageHash",
          "type": "bytes32"
        },
        {
          "internalType": "bytes",
          "name": "signature",
          "type": "bytes"
        }
      ],
      "name": "recoverSigner",
      "outputs": [
        {
          "internalType": "address",
          "name": "",
          "type": "address"
        }
      ],
      "stateMutability": "pure",
      "type": "function"
    },
    {
      "inputs": [
        {
          "internalType": "bytes32",
          "name": "",
          "type": "bytes32"
        }
      ],
      "name": "revertedSFXsMap",
      "outputs": [
        {
          "internalType": "bool",
          "name": "",
          "type": "bool"
        }
      ],
      "stateMutability": "view",
      "type": "function"
    },
    {
      "inputs": [
        {
          "internalType": "bytes32",
          "name": "messageHash",
          "type": "bytes32"
        },
        {
          "internalType": "bytes[]",
          "name": "signatures",
          "type": "bytes[]"
        }
      ],
      "name": "verifySignedByActiveCommittee",
      "outputs": [
        {
          "internalType": "bool",
          "name": "",
          "type": "bool"
        }
      ],
      "stateMutability": "nonpayable",
      "type": "function"
    }
  ],
  "bytecode": "0x60806040523480156200001157600080fd5b5060405162001d4b38038062001d4b8339818101604052810190620000379190620002d4565b60005b8151811015620000ce5760016000808484815181106200005f576200005e62000325565b5b602002602001015173ffffffffffffffffffffffffffffffffffffffff1673ffffffffffffffffffffffffffffffffffffffff16815260200190815260200160002060006101000a81548160ff0219169083151502179055508080620000c5906200038d565b9150506200003a565b508051600381905550600060048190555050620003da565b6000604051905090565b600080fd5b600080fd5b600080fd5b6000601f19601f8301169050919050565b7f4e487b7100000000000000000000000000000000000000000000000000000000600052604160045260246000fd5b6200014a82620000ff565b810181811067ffffffffffffffff821117156200016c576200016b62000110565b5b80604052505050565b600062000181620000e6565b90506200018f82826200013f565b919050565b600067ffffffffffffffff821115620001b257620001b162000110565b5b602082029050602081019050919050565b600080fd5b600073ffffffffffffffffffffffffffffffffffffffff82169050919050565b6000620001f582620001c8565b9050919050565b6200020781620001e8565b81146200021357600080fd5b50565b6000815190506200022781620001fc565b92915050565b6000620002446200023e8462000194565b62000175565b905080838252602082019050602084028301858111156200026a5762000269620001c3565b5b835b8181101562000297578062000282888262000216565b8452602084019350506020810190506200026c565b5050509392505050565b600082601f830112620002b957620002b8620000fa565b5b8151620002cb8482602086016200022d565b91505092915050565b600060208284031215620002ed57620002ec620000f0565b5b600082015167ffffffffffffffff8111156200030e576200030d620000f5565b5b6200031c84828501620002a1565b91505092915050565b7f4e487b7100000000000000000000000000000000000000000000000000000000600052603260045260246000fd5b7f4e487b7100000000000000000000000000000000000000000000000000000000600052601160045260246000fd5b6000819050919050565b60006200039a8262000383565b91507fffffffffffffffffffffffffffffffffffffffffffffffffffffffffffffffff8203620003cf57620003ce62000354565b5b600182019050919050565b61196180620003ea6000396000f3fe608060405234801561001057600080fd5b50600436106100935760003560e01c80637e35a291116100665780637e35a29114610132578063907a3ee31461016257806397aba7f9146101925780639cf4364b146101c2578063af7e59b9146101e057610093565b80632d2b3d1f146100985780636090b30e146100c8578063705648c1146100e657806371986f0614610102575b600080fd5b6100b260048036038101906100ad91906109de565b610210565b6040516100bf9190610a26565b60405180910390f35b6100d0610230565b6040516100dd9190610a5a565b60405180910390f35b61010060048036038101906100fb9190610ec1565b610236565b005b61011c60048036038101906101179190610fef565b6106c5565b6040516101299190610a26565b60405180910390f35b61014c600480360381019061014791906109de565b61080a565b6040516101599190610a26565b60405180910390f35b61017c60048036038101906101779190611151565b61082a565b6040516101899190611219565b60405180910390f35b6101ac60048036038101906101a7919061123b565b61086f565b6040516101b991906112a6565b60405180910390f35b6101ca61096e565b6040516101d79190610a5a565b60405180910390f35b6101fa60048036038101906101f591906112c1565b610974565b6040516102079190610a26565b60405180910390f35b60016020528060005260406000206000915054906101000a900460ff1681565b60045481565b60006040518060a001604052808981526020018881526020018781526020018681526020018563ffffffff16815250905060006102728261082a565b8051906020012090508381146102bd576040517f08c379a00000000000000000000000000000000000000000000000000000000081526004016102b49061134b565b60405180910390fd5b6102c781846106c5565b610306576040517f08c379a00000000000000000000000000000000000000000000000000000000081526004016102fd906113b7565b60405180910390fd5b60016004546103159190611406565b826080015163ffffffff1614610360576040517f08c379a000000000000000000000000000000000000000000000000000000000815260040161035790611486565b60405180910390fd5b6000600354905060005b83600001515181101561047d5760008085600001518381518110610391576103906114a6565b5b602002602001015173ffffffffffffffffffffffffffffffffffffffff1673ffffffffffffffffffffffffffffffffffffffff16815260200190815260200160002060009054906101000a900460ff1661046a57600160008086600001518481518110610401576104006114a6565b5b602002602001015173ffffffffffffffffffffffffffffffffffffffff1673ffffffffffffffffffffffffffffffffffffffff16815260200190815260200160002060006101000a81548160ff0219169083151502179055506001826104679190611406565b91505b8080610475906114d5565b91505061036a565b5060005b83602001515181101561058c57600080856020015183815181106104a8576104a76114a6565b5b602002602001015173ffffffffffffffffffffffffffffffffffffffff1673ffffffffffffffffffffffffffffffffffffffff16815260200190815260200160002060009054906101000a900460ff16156105795760008085602001518381518110610517576105166114a6565b5b602002602001015173ffffffffffffffffffffffffffffffffffffffff1673ffffffffffffffffffffffffffffffffffffffff16815260200190815260200160002060006101000a81549060ff0219169055600182610576919061151d565b91505b8080610584906114d5565b915050610481565b508060038190555060005b836040015151811015610600576001806000866040015184815181106105c0576105bf6114a6565b5b6020026020010151815260200190815260200160002060006101000a81548160ff02191690831515021790555080806105f8906114d5565b915050610597565b5060005b83606001515181101561066e576001600260008660600151848151811061062e5761062d6114a6565b5b6020026020010151815260200190815260200160002060006101000a81548160ff0219169083151502179055508080610666906114d5565b915050610604565b50826080015163ffffffff16600481905550817f8fd79dabe485d4f469a99a2eb29c960b712a82439c406aa08f049b5863da5b5085516040516106b19190610a5a565b60405180910390a250505050505050505050565b600080600090506000600360026003546106df9190611551565b6106e991906115c2565b905060005b84518110156107e157600061071d878784815181106107105761070f6114a6565b5b602002602001015161086f565b9050600073ffffffffffffffffffffffffffffffffffffffff168173ffffffffffffffffffffffffffffffffffffffff16141580156107a457506000808273ffffffffffffffffffffffffffffffffffffffff1673ffffffffffffffffffffffffffffffffffffffff16815260200190815260200160002060009054906101000a900460ff165b156107cd576001846107b69190611406565b93508284106107cc576001945050505050610804565b5b5080806107d9906114d5565b9150506106ee565b50600360026003546107f39190611551565b6107fd91906115c2565b8211925050505b92915050565b60026020528060005260406000206000915054906101000a900460ff1681565b606081600001518260200151836040015184606001518560800151604051602001610859959493929190611799565b6040516020818303038152906040529050919050565b600080600080604185511461088a5760009350505050610968565b6020850151925060408501519150606085015160001a9050601b8160ff1610156108be57601b816108bb91906117f5565b90505b601b8160ff16141580156108d65750601c8160ff1614155b156108e75760009350505050610968565b6000866040516020016108fa91906118a2565b6040516020818303038152906040528051906020012090506001818386866040516000815260200160405260405161093594939291906118e6565b6020604051602081039080840390855afa158015610957573d6000803e3d6000fd5b505050602060405103519450505050505b92915050565b60035481565b60006020528060005260406000206000915054906101000a900460ff1681565b6000604051905090565b600080fd5b600080fd5b6000819050919050565b6109bb816109a8565b81146109c657600080fd5b50565b6000813590506109d8816109b2565b92915050565b6000602082840312156109f4576109f361099e565b5b6000610a02848285016109c9565b91505092915050565b60008115159050919050565b610a2081610a0b565b82525050565b6000602082019050610a3b6000830184610a17565b92915050565b6000819050919050565b610a5481610a41565b82525050565b6000602082019050610a6f6000830184610a4b565b92915050565b600080fd5b6000601f19601f8301169050919050565b7f4e487b7100000000000000000000000000000000000000000000000000000000600052604160045260246000fd5b610ac382610a7a565b810181811067ffffffffffffffff82111715610ae257610ae1610a8b565b5b80604052505050565b6000610af5610994565b9050610b018282610aba565b919050565b600067ffffffffffffffff821115610b2157610b20610a8b565b5b602082029050602081019050919050565b600080fd5b600073ffffffffffffffffffffffffffffffffffffffff82169050919050565b6000610b6282610b37565b9050919050565b610b7281610b57565b8114610b7d57600080fd5b50565b600081359050610b8f81610b69565b92915050565b6000610ba8610ba384610b06565b610aeb565b90508083825260208201905060208402830185811115610bcb57610bca610b32565b5b835b81811015610bf45780610be08882610b80565b845260208401935050602081019050610bcd565b5050509392505050565b600082601f830112610c1357610c12610a75565b5b8135610c23848260208601610b95565b91505092915050565b600067ffffffffffffffff821115610c4757610c46610a8b565b5b602082029050602081019050919050565b6000610c6b610c6684610c2c565b610aeb565b90508083825260208201905060208402830185811115610c8e57610c8d610b32565b5b835b81811015610cb75780610ca388826109c9565b845260208401935050602081019050610c90565b5050509392505050565b600082601f830112610cd657610cd5610a75565b5b8135610ce6848260208601610c58565b91505092915050565b600063ffffffff82169050919050565b610d0881610cef565b8114610d1357600080fd5b50565b600081359050610d2581610cff565b92915050565b600067ffffffffffffffff821115610d4657610d45610a8b565b5b602082029050602081019050919050565b600080fd5b600067ffffffffffffffff821115610d7757610d76610a8b565b5b610d8082610a7a565b9050602081019050919050565b82818337600083830152505050565b6000610daf610daa84610d5c565b610aeb565b905082815260208101848484011115610dcb57610dca610d57565b5b610dd6848285610d8d565b509392505050565b600082601f830112610df357610df2610a75565b5b8135610e03848260208601610d9c565b91505092915050565b6000610e1f610e1a84610d2b565b610aeb565b90508083825260208201905060208402830185811115610e4257610e41610b32565b5b835b81811015610e8957803567ffffffffffffffff811115610e6757610e66610a75565b5b808601610e748982610dde565b85526020850194505050602081019050610e44565b5050509392505050565b600082601f830112610ea857610ea7610a75565b5b8135610eb8848260208601610e0c565b91505092915050565b600080600080600080600060e0888a031215610ee057610edf61099e565b5b600088013567ffffffffffffffff811115610efe57610efd6109a3565b5b610f0a8a828b01610bfe565b975050602088013567ffffffffffffffff811115610f2b57610f2a6109a3565b5b610f378a828b01610bfe565b965050604088013567ffffffffffffffff811115610f5857610f576109a3565b5b610f648a828b01610cc1565b955050606088013567ffffffffffffffff811115610f8557610f846109a3565b5b610f918a828b01610cc1565b9450506080610fa28a828b01610d16565b93505060a0610fb38a828b016109c9565b92505060c088013567ffffffffffffffff811115610fd457610fd36109a3565b5b610fe08a828b01610e93565b91505092959891949750929550565b600080604083850312156110065761100561099e565b5b6000611014858286016109c9565b925050602083013567ffffffffffffffff811115611035576110346109a3565b5b61104185828601610e93565b9150509250929050565b600080fd5b600080fd5b600060a0828403121561106b5761106a61104b565b5b61107560a0610aeb565b9050600082013567ffffffffffffffff81111561109557611094611050565b5b6110a184828501610bfe565b600083015250602082013567ffffffffffffffff8111156110c5576110c4611050565b5b6110d184828501610bfe565b602083015250604082013567ffffffffffffffff8111156110f5576110f4611050565b5b61110184828501610cc1565b604083015250606082013567ffffffffffffffff81111561112557611124611050565b5b61113184828501610cc1565b606083015250608061114584828501610d16565b60808301525092915050565b6000602082840312156111675761116661099e565b5b600082013567ffffffffffffffff811115611185576111846109a3565b5b61119184828501611055565b91505092915050565b600081519050919050565b600082825260208201905092915050565b60005b838110156111d45780820151818401526020810190506111b9565b60008484015250505050565b60006111eb8261119a565b6111f581856111a5565b93506112058185602086016111b6565b61120e81610a7a565b840191505092915050565b6000602082019050818103600083015261123381846111e0565b905092915050565b600080604083850312156112525761125161099e565b5b6000611260858286016109c9565b925050602083013567ffffffffffffffff811115611281576112806109a3565b5b61128d85828601610dde565b9150509250929050565b6112a081610b57565b82525050565b60006020820190506112bb6000830184611297565b92915050565b6000602082840312156112d7576112d661099e565b5b60006112e584828501610b80565b91505092915050565b600082825260208201905092915050565b7f42617463682068617368206d69736d6174636800000000000000000000000000600082015250565b60006113356013836112ee565b9150611340826112ff565b602082019050919050565b6000602082019050818103600083015261136481611328565b9050919050565b7f5369676e61747572657320766572696669636174696f6e206661696c65640000600082015250565b60006113a1601e836112ee565b91506113ac8261136b565b602082019050919050565b600060208201905081810360008301526113d081611394565b9050919050565b7f4e487b7100000000000000000000000000000000000000000000000000000000600052601160045260246000fd5b600061141182610a41565b915061141c83610a41565b9250828201905080821115611434576114336113d7565b5b92915050565b7f426174636820696e646578206d69736d61746368000000000000000000000000600082015250565b60006114706014836112ee565b915061147b8261143a565b602082019050919050565b6000602082019050818103600083015261149f81611463565b9050919050565b7f4e487b7100000000000000000000000000000000000000000000000000000000600052603260045260246000fd5b60006114e082610a41565b91507fffffffffffffffffffffffffffffffffffffffffffffffffffffffffffffffff8203611512576115116113d7565b5b600182019050919050565b600061152882610a41565b915061153383610a41565b925082820390508181111561154b5761154a6113d7565b5b92915050565b600061155c82610a41565b915061156783610a41565b925082820261157581610a41565b9150828204841483151761158c5761158b6113d7565b5b5092915050565b7f4e487b7100000000000000000000000000000000000000000000000000000000600052601260045260246000fd5b60006115cd82610a41565b91506115d883610a41565b9250826115e8576115e7611593565b5b828204905092915050565b600081519050919050565b600081905092915050565b6000819050602082019050919050565b61162281610b57565b82525050565b60006116348383611619565b60208301905092915050565b6000602082019050919050565b6000611658826115f3565b61166281856115fe565b935061166d83611609565b8060005b8381101561169e5781516116858882611628565b975061169083611640565b925050600181019050611671565b5085935050505092915050565b600081519050919050565b600081905092915050565b6000819050602082019050919050565b6116da816109a8565b82525050565b60006116ec83836116d1565b60208301905092915050565b6000602082019050919050565b6000611710826116ab565b61171a81856116b6565b9350611725836116c1565b8060005b8381101561175657815161173d88826116e0565b9750611748836116f8565b925050600181019050611729565b5085935050505092915050565b60008160e01b9050919050565b600061177b82611763565b9050919050565b61179361178e82610cef565b611770565b82525050565b60006117a5828861164d565b91506117b1828761164d565b91506117bd8286611705565b91506117c98285611705565b91506117d58284611782565b6004820191508190509695505050505050565b600060ff82169050919050565b6000611800826117e8565b915061180b836117e8565b9250828201905060ff811115611824576118236113d7565b5b92915050565b600081905092915050565b7f19457468657265756d205369676e6564204d6573736167653a0a333200000000600082015250565b600061186b601c8361182a565b915061187682611835565b601c82019050919050565b6000819050919050565b61189c611897826109a8565b611881565b82525050565b60006118ad8261185e565b91506118b9828461188b565b60208201915081905092915050565b6118d1816109a8565b82525050565b6118e0816117e8565b82525050565b60006080820190506118fb60008301876118c8565b61190860208301866118d7565b61191560408301856118c8565b61192260608301846118c8565b9594505050505056fea264697066735822122050b0208a0331de5bcd8b376629c095117034cddf106326afb612a95a2d94cc0864736f6c63430008120033",
  "linkReferences": {},
  "deployedLinkReferences": {}
}