{
  "_format": "hh-sol-artifact-1",
  "contractName": "AttestationsVerifier",
  "sourceName": "contracts/attestationsVerifier.sol",
  "abi": [
    {
      "inputs": [
        {
          "internalType": "address[]",
          "name": "initialCommittee",
          "type": "address[]"
        },
        {
          "internalType": "uint256",
          "name": "startingIndex",
          "type": "uint256"
        }
      ],
      "stateMutability": "nonpayable",
      "type": "constructor"
    },
    {
      "anonymous": false,
      "inputs": [
        {
          "indexed": true,
          "internalType": "bytes32",
          "name": "batchHash",
          "type": "bytes32"
        }
      ],
      "name": "BatchApplied",
      "type": "event"
    },
    {
      "anonymous": false,
      "inputs": [
        {
          "indexed": true,
          "internalType": "address",
          "name": "signer",
          "type": "address"
        }
      ],
      "name": "SignerEmitted",
      "type": "event"
    },
    {
      "anonymous": false,
      "inputs": [
        {
          "indexed": true,
          "internalType": "address",
          "name": "signer",
          "type": "address"
        }
      ],
      "name": "SignerNotInCommittee",
      "type": "event"
    },
    {
      "inputs": [
        {
          "internalType": "address",
          "name": "",
          "type": "address"
        }
      ],
      "name": "attestersIndices",
      "outputs": [
        {
          "internalType": "uint256",
          "name": "",
          "type": "uint256"
        }
      ],
      "stateMutability": "view",
      "type": "function"
    },
    {
      "inputs": [
        {
          "components": [
            {
              "internalType": "address[]",
              "name": "nextCommittee",
              "type": "address[]"
            },
            {
              "internalType": "address[]",
              "name": "bannedCommittee",
              "type": "address[]"
            },
            {
              "internalType": "bytes32[]",
              "name": "committedSfx",
              "type": "bytes32[]"
            },
            {
              "internalType": "bytes32[]",
              "name": "revertedSfx",
              "type": "bytes32[]"
            },
            {
              "internalType": "uint32",
              "name": "index",
              "type": "uint32"
            }
          ],
          "internalType": "struct AttestationsVerifier.Batch",
          "name": "batch",
          "type": "tuple"
        }
      ],
      "name": "batchEncodePacked",
      "outputs": [
        {
          "internalType": "bytes",
          "name": "",
          "type": "bytes"
        }
      ],
      "stateMutability": "pure",
      "type": "function"
    },
    {
      "inputs": [
        {
          "internalType": "bytes32",
          "name": "",
          "type": "bytes32"
        }
      ],
      "name": "committedSfxMap",
      "outputs": [
        {
          "internalType": "bool",
          "name": "",
          "type": "bool"
        }
      ],
      "stateMutability": "view",
      "type": "function"
    },
    {
      "inputs": [],
      "name": "committeeSize",
      "outputs": [
        {
          "internalType": "uint256",
          "name": "",
          "type": "uint256"
        }
      ],
      "stateMutability": "view",
      "type": "function"
    },
    {
      "inputs": [],
      "name": "currentBatchIndex",
      "outputs": [
        {
          "internalType": "uint256",
          "name": "",
          "type": "uint256"
        }
      ],
      "stateMutability": "view",
      "type": "function"
    },
    {
      "inputs": [],
      "name": "currentCommitteeTransitionCount",
      "outputs": [
        {
          "internalType": "uint256",
          "name": "",
          "type": "uint256"
        }
      ],
      "stateMutability": "view",
      "type": "function"
    },
    {
      "inputs": [
        {
          "components": [
            {
              "internalType": "address[]",
              "name": "nextCommittee",
              "type": "address[]"
            },
            {
              "internalType": "address[]",
              "name": "bannedCommittee",
              "type": "address[]"
            },
            {
              "internalType": "bytes32[]",
              "name": "committedSfx",
              "type": "bytes32[]"
            },
            {
              "internalType": "bytes32[]",
              "name": "revertedSfx",
              "type": "bytes32[]"
            },
            {
              "internalType": "uint32",
              "name": "index",
              "type": "uint32"
            }
          ],
          "internalType": "struct AttestationsVerifier.Batch",
          "name": "batch",
          "type": "tuple"
        }
      ],
      "name": "messageHash",
      "outputs": [
        {
          "internalType": "bytes32",
          "name": "",
          "type": "bytes32"
        }
      ],
      "stateMutability": "pure",
      "type": "function"
    },
    {
      "inputs": [],
      "name": "owner",
      "outputs": [
        {
          "internalType": "address",
          "name": "",
          "type": "address"
        }
      ],
      "stateMutability": "view",
      "type": "function"
    },
    {
      "inputs": [
        {
          "internalType": "address[]",
          "name": "nextCommittee",
          "type": "address[]"
        },
        {
          "internalType": "address[]",
          "name": "bannedCommittee",
          "type": "address[]"
        },
        {
          "internalType": "bytes32[]",
          "name": "committedSfx",
          "type": "bytes32[]"
        },
        {
          "internalType": "bytes32[]",
          "name": "revertedSfx",
          "type": "bytes32[]"
        },
        {
          "internalType": "uint32",
          "name": "index",
          "type": "uint32"
        },
        {
          "internalType": "bytes32",
          "name": "expectedBatchHash",
          "type": "bytes32"
        },
        {
          "internalType": "bytes[]",
          "name": "signatures",
          "type": "bytes[]"
        }
      ],
      "name": "receiveAttestationBatch",
      "outputs": [],
      "stateMutability": "nonpayable",
      "type": "function"
    },
    {
      "inputs": [
        {
          "internalType": "bytes32",
          "name": "messageHash",
          "type": "bytes32"
        },
        {
          "internalType": "bytes",
          "name": "signature",
          "type": "bytes"
        }
      ],
      "name": "recoverSigner",
      "outputs": [
        {
          "internalType": "address",
          "name": "",
          "type": "address"
        }
      ],
      "stateMutability": "pure",
      "type": "function"
    },
    {
      "inputs": [
        {
          "internalType": "bytes32",
          "name": "",
          "type": "bytes32"
        }
      ],
      "name": "revertedSfxMap",
      "outputs": [
        {
          "internalType": "bool",
          "name": "",
          "type": "bool"
        }
      ],
      "stateMutability": "view",
      "type": "function"
    },
    {
      "inputs": [],
      "name": "totalAttesters",
      "outputs": [
        {
          "internalType": "uint256",
          "name": "",
          "type": "uint256"
        }
      ],
      "stateMutability": "view",
      "type": "function"
    },
    {
      "inputs": [
        {
          "internalType": "uint256",
          "name": "newCommitteeSize",
          "type": "uint256"
        }
      ],
      "name": "updateCommitteeSize",
      "outputs": [],
      "stateMutability": "nonpayable",
      "type": "function"
    },
    {
      "inputs": [
        {
          "internalType": "bytes32",
          "name": "messageHash",
          "type": "bytes32"
        },
        {
          "internalType": "bytes[]",
          "name": "signatures",
          "type": "bytes[]"
        }
      ],
      "name": "verifySignedByActiveCommittee",
      "outputs": [
        {
          "internalType": "bool",
          "name": "",
          "type": "bool"
        }
      ],
      "stateMutability": "nonpayable",
      "type": "function"
    }
  ],
  "bytecode": "0x60806040523480156200001157600080fd5b506040516200215e3803806200215e83398181016040528101906200003791906200034f565b600160058190555060005b8251811015620000c55760055460026000858481518110620000695762000068620003b5565b5b602002602001015173ffffffffffffffffffffffffffffffffffffffff1673ffffffffffffffffffffffffffffffffffffffff168152602001908152602001600020819055508080620000bc9062000413565b91505062000042565b5081516007819055508060068190555033600360006101000a81548173ffffffffffffffffffffffffffffffffffffffff021916908373ffffffffffffffffffffffffffffffffffffffff1602179055508151600481905550505062000460565b6000604051905090565b600080fd5b600080fd5b600080fd5b6000601f19601f8301169050919050565b7f4e487b7100000000000000000000000000000000000000000000000000000000600052604160045260246000fd5b6200018a826200013f565b810181811067ffffffffffffffff82111715620001ac57620001ab62000150565b5b80604052505050565b6000620001c162000126565b9050620001cf82826200017f565b919050565b600067ffffffffffffffff821115620001f257620001f162000150565b5b602082029050602081019050919050565b600080fd5b600073ffffffffffffffffffffffffffffffffffffffff82169050919050565b6000620002358262000208565b9050919050565b620002478162000228565b81146200025357600080fd5b50565b60008151905062000267816200023c565b92915050565b6000620002846200027e84620001d4565b620001b5565b90508083825260208201905060208402830185811115620002aa57620002a962000203565b5b835b81811015620002d75780620002c2888262000256565b845260208401935050602081019050620002ac565b5050509392505050565b600082601f830112620002f957620002f86200013a565b5b81516200030b8482602086016200026d565b91505092915050565b6000819050919050565b620003298162000314565b81146200033557600080fd5b50565b60008151905062000349816200031e565b92915050565b6000806040838503121562000369576200036862000130565b5b600083015167ffffffffffffffff8111156200038a576200038962000135565b5b6200039885828601620002e1565b9250506020620003ab8582860162000338565b9150509250929050565b7f4e487b7100000000000000000000000000000000000000000000000000000000600052603260045260246000fd5b7f4e487b7100000000000000000000000000000000000000000000000000000000600052601160045260246000fd5b6000620004208262000314565b91507fffffffffffffffffffffffffffffffffffffffffffffffffffffffffffffffff8203620004555762000454620003e4565b5b600182019050919050565b611cee80620004706000396000f3fe608060405234801561001057600080fd5b50600436106100ea5760003560e01c8063907a3ee31161008c578063a6a39ebd11610066578063a6a39ebd14610273578063b18711e4146102a3578063cad35f5d146102bf578063d808867b146102dd576100ea565b8063907a3ee3146101f557806397aba7f9146102255780639cf4364b14610255576100ea565b80636090b30e116100c85780636090b30e1461016d578063705648c11461018b57806371986f06146101a75780638da5cb5b146101d7576100ea565b806308653f4b146100ef57806356931ab01461010d578063603d8c9e1461013d575b600080fd5b6100f761030d565b6040516101049190610c68565b60405180910390f35b61012760048036038101906101229190610ccd565b610313565b6040516101349190610d15565b60405180910390f35b610157600480360381019061015291906110ec565b610333565b6040516101649190611144565b60405180910390f35b61017561034c565b6040516101829190610c68565b60405180910390f35b6101a560048036038101906101a091906112f5565b610352565b005b6101c160048036038101906101bc9190611423565b610829565b6040516101ce9190610d15565b60405180910390f35b6101df610a07565b6040516101ec919061148e565b60405180910390f35b61020f600480360381019061020a91906110ec565b610a2d565b60405161021c9190611528565b60405180910390f35b61023f600480360381019061023a919061154a565b610a72565b60405161024c919061148e565b60405180910390f35b61025d610b71565b60405161026a9190610c68565b60405180910390f35b61028d60048036038101906102889190610ccd565b610b77565b60405161029a9190610d15565b60405180910390f35b6102bd60048036038101906102b891906115d2565b610b97565b005b6102c7610c31565b6040516102d49190610c68565b60405180910390f35b6102f760048036038101906102f291906115ff565b610c37565b6040516103049190610c68565b60405180910390f35b60055481565b60016020528060005260406000206000915054906101000a900460ff1681565b600061033e82610a2d565b805190602001209050919050565b60065481565b60006040518060a001604052808981526020018881526020018781526020018681526020018563ffffffff168152509050600061038e82610a2d565b8051906020012090508381146103d9576040517f08c379a00000000000000000000000000000000000000000000000000000000081526004016103d090611689565b60405180910390fd5b6103e38484610829565b610422576040517f08c379a0000000000000000000000000000000000000000000000000000000008152600401610419906116f5565b60405180910390fd5b60016006546104319190611744565b826080015163ffffffff161461047c576040517f08c379a0000000000000000000000000000000000000000000000000000000008152600401610473906117c4565b60405180910390fd5b600082600001515111156105db5760016005600082825461049d9190611744565b9250508190555060005b8260000151518110156105d957600060026000856000015184815181106104d1576104d06117e4565b5b602002602001015173ffffffffffffffffffffffffffffffffffffffff1673ffffffffffffffffffffffffffffffffffffffff16815260200190815260200160002054905060008103610539576001600760008282546105319190611744565b925050819055505b7fffffffffffffffffffffffffffffffffffffffffffffffffffffffffffffffff81146105c557600554600260008660000151858151811061057e5761057d6117e4565b5b602002602001015173ffffffffffffffffffffffffffffffffffffffff1673ffffffffffffffffffffffffffffffffffffffff168152602001908152602001600020819055505b5080806105d190611813565b9150506104a7565b505b60005b826020015151811015610705577fffffffffffffffffffffffffffffffffffffffffffffffffffffffffffffffff6002600085602001518481518110610627576106266117e4565b5b602002602001015173ffffffffffffffffffffffffffffffffffffffff1673ffffffffffffffffffffffffffffffffffffffff16815260200190815260200160002054146106f2577fffffffffffffffffffffffffffffffffffffffffffffffffffffffffffffffff60026000856020015184815181106106ab576106aa6117e4565b5b602002602001015173ffffffffffffffffffffffffffffffffffffffff1673ffffffffffffffffffffffffffffffffffffffff168152602001908152602001600020819055505b80806106fd90611813565b9150506105de565b5060005b82604001515181101561077257600160008085604001518481518110610732576107316117e4565b5b6020026020010151815260200190815260200160002060006101000a81548160ff021916908315150217905550808061076a90611813565b915050610709565b5060005b8260600151518110156107df5760018060008560600151848151811061079f5761079e6117e4565b5b6020026020010151815260200190815260200160002060006101000a81548160ff02191690831515021790555080806107d790611813565b915050610776565b50816080015163ffffffff16600681905550837f5a0cfe6a3799c25127f59391fefd2e36141a1db850684ae89efc6ba8add9ce0660405160405180910390a2505050505050505050565b60008060009050600060036002600454610843919061185b565b61084d91906118cc565b905060005b84518110156109f757600080600080888581518110610874576108736117e4565b5b60200260200101519050604181511461089057505050506109e4565b6020810151935060408101519250606081015160001a9150601b8260ff1610156108c457601b826108c1919061190a565b91505b601b8260ff16141580156108dc5750601c8260ff1614155b156108ea57505050506109e4565b60008a6040516020016108fd91906119b7565b60405160208183030381529060405280519060200120905060006001828588886040516000815260200160405260405161093a94939291906119ec565b6020604051602081039080840390855afa15801561095c573d6000803e3d6000fd5b5050506020604051035190506000600260008373ffffffffffffffffffffffffffffffffffffffff1673ffffffffffffffffffffffffffffffffffffffff16815260200190815260200160002054905060055481036109c55760018a6109c29190611744565b99505b5050508587106109df576001975050505050505050610a01565b505050505b80806109ef90611813565b915050610852565b5080821015925050505b92915050565b600360009054906101000a900473ffffffffffffffffffffffffffffffffffffffff1681565b606081600001518260200151836040015184606001518560800151604051602001610a5c959493929190611bd7565b6040516020818303038152906040529050919050565b6000806000806041855114610a8d5760009350505050610b6b565b6020850151925060408501519150606085015160001a9050601b8160ff161015610ac157601b81610abe919061190a565b90505b601b8160ff1614158015610ad95750601c8160ff1614155b15610aea5760009350505050610b6b565b600086604051602001610afd91906119b7565b60405160208183030381529060405280519060200120905060018183868660405160008152602001604052604051610b3894939291906119ec565b6020604051602081039080840390855afa158015610b5a573d6000803e3d6000fd5b505050602060405103519450505050505b92915050565b60045481565b60006020528060005260406000206000915054906101000a900460ff1681565b600360009054906101000a900473ffffffffffffffffffffffffffffffffffffffff1673ffffffffffffffffffffffffffffffffffffffff163373ffffffffffffffffffffffffffffffffffffffff1614610c27576040517f08c379a0000000000000000000000000000000000000000000000000000000008152600401610c1e90611c98565b60405180910390fd5b8060048190555050565b60075481565b60026020528060005260406000206000915090505481565b6000819050919050565b610c6281610c4f565b82525050565b6000602082019050610c7d6000830184610c59565b92915050565b6000604051905090565b600080fd5b600080fd5b6000819050919050565b610caa81610c97565b8114610cb557600080fd5b50565b600081359050610cc781610ca1565b92915050565b600060208284031215610ce357610ce2610c8d565b5b6000610cf184828501610cb8565b91505092915050565b60008115159050919050565b610d0f81610cfa565b82525050565b6000602082019050610d2a6000830184610d06565b92915050565b600080fd5b6000601f19601f8301169050919050565b7f4e487b7100000000000000000000000000000000000000000000000000000000600052604160045260246000fd5b610d7e82610d35565b810181811067ffffffffffffffff82111715610d9d57610d9c610d46565b5b80604052505050565b6000610db0610c83565b9050610dbc8282610d75565b919050565b600080fd5b600080fd5b600067ffffffffffffffff821115610de657610de5610d46565b5b602082029050602081019050919050565b600080fd5b600073ffffffffffffffffffffffffffffffffffffffff82169050919050565b6000610e2782610dfc565b9050919050565b610e3781610e1c565b8114610e4257600080fd5b50565b600081359050610e5481610e2e565b92915050565b6000610e6d610e6884610dcb565b610da6565b90508083825260208201905060208402830185811115610e9057610e8f610df7565b5b835b81811015610eb95780610ea58882610e45565b845260208401935050602081019050610e92565b5050509392505050565b600082601f830112610ed857610ed7610dc6565b5b8135610ee8848260208601610e5a565b91505092915050565b600067ffffffffffffffff821115610f0c57610f0b610d46565b5b602082029050602081019050919050565b6000610f30610f2b84610ef1565b610da6565b90508083825260208201905060208402830185811115610f5357610f52610df7565b5b835b81811015610f7c5780610f688882610cb8565b845260208401935050602081019050610f55565b5050509392505050565b600082601f830112610f9b57610f9a610dc6565b5b8135610fab848260208601610f1d565b91505092915050565b600063ffffffff82169050919050565b610fcd81610fb4565b8114610fd857600080fd5b50565b600081359050610fea81610fc4565b92915050565b600060a0828403121561100657611005610d30565b5b61101060a0610da6565b9050600082013567ffffffffffffffff8111156110305761102f610dc1565b5b61103c84828501610ec3565b600083015250602082013567ffffffffffffffff8111156110605761105f610dc1565b5b61106c84828501610ec3565b602083015250604082013567ffffffffffffffff8111156110905761108f610dc1565b5b61109c84828501610f86565b604083015250606082013567ffffffffffffffff8111156110c0576110bf610dc1565b5b6110cc84828501610f86565b60608301525060806110e084828501610fdb565b60808301525092915050565b60006020828403121561110257611101610c8d565b5b600082013567ffffffffffffffff8111156111205761111f610c92565b5b61112c84828501610ff0565b91505092915050565b61113e81610c97565b82525050565b60006020820190506111596000830184611135565b92915050565b600067ffffffffffffffff82111561117a57611179610d46565b5b602082029050602081019050919050565b600080fd5b600067ffffffffffffffff8211156111ab576111aa610d46565b5b6111b482610d35565b9050602081019050919050565b82818337600083830152505050565b60006111e36111de84611190565b610da6565b9050828152602081018484840111156111ff576111fe61118b565b5b61120a8482856111c1565b509392505050565b600082601f83011261122757611226610dc6565b5b81356112378482602086016111d0565b91505092915050565b600061125361124e8461115f565b610da6565b9050808382526020820190506020840283018581111561127657611275610df7565b5b835b818110156112bd57803567ffffffffffffffff81111561129b5761129a610dc6565b5b8086016112a88982611212565b85526020850194505050602081019050611278565b5050509392505050565b600082601f8301126112dc576112db610dc6565b5b81356112ec848260208601611240565b91505092915050565b600080600080600080600060e0888a03121561131457611313610c8d565b5b600088013567ffffffffffffffff81111561133257611331610c92565b5b61133e8a828b01610ec3565b975050602088013567ffffffffffffffff81111561135f5761135e610c92565b5b61136b8a828b01610ec3565b965050604088013567ffffffffffffffff81111561138c5761138b610c92565b5b6113988a828b01610f86565b955050606088013567ffffffffffffffff8111156113b9576113b8610c92565b5b6113c58a828b01610f86565b94505060806113d68a828b01610fdb565b93505060a06113e78a828b01610cb8565b92505060c088013567ffffffffffffffff81111561140857611407610c92565b5b6114148a828b016112c7565b91505092959891949750929550565b6000806040838503121561143a57611439610c8d565b5b600061144885828601610cb8565b925050602083013567ffffffffffffffff81111561146957611468610c92565b5b611475858286016112c7565b9150509250929050565b61148881610e1c565b82525050565b60006020820190506114a3600083018461147f565b92915050565b600081519050919050565b600082825260208201905092915050565b60005b838110156114e35780820151818401526020810190506114c8565b60008484015250505050565b60006114fa826114a9565b61150481856114b4565b93506115148185602086016114c5565b61151d81610d35565b840191505092915050565b6000602082019050818103600083015261154281846114ef565b905092915050565b6000806040838503121561156157611560610c8d565b5b600061156f85828601610cb8565b925050602083013567ffffffffffffffff8111156115905761158f610c92565b5b61159c85828601611212565b9150509250929050565b6115af81610c4f565b81146115ba57600080fd5b50565b6000813590506115cc816115a6565b92915050565b6000602082840312156115e8576115e7610c8d565b5b60006115f6848285016115bd565b91505092915050565b60006020828403121561161557611614610c8d565b5b600061162384828501610e45565b91505092915050565b600082825260208201905092915050565b7f42617463682068617368206d69736d6174636800000000000000000000000000600082015250565b600061167360138361162c565b915061167e8261163d565b602082019050919050565b600060208201905081810360008301526116a281611666565b9050919050565b7f5369676e61747572657320766572696669636174696f6e206661696c65640000600082015250565b60006116df601e8361162c565b91506116ea826116a9565b602082019050919050565b6000602082019050818103600083015261170e816116d2565b9050919050565b7f4e487b7100000000000000000000000000000000000000000000000000000000600052601160045260246000fd5b600061174f82610c4f565b915061175a83610c4f565b925082820190508082111561177257611771611715565b5b92915050565b7f426174636820696e646578206d69736d61746368000000000000000000000000600082015250565b60006117ae60148361162c565b91506117b982611778565b602082019050919050565b600060208201905081810360008301526117dd816117a1565b9050919050565b7f4e487b7100000000000000000000000000000000000000000000000000000000600052603260045260246000fd5b600061181e82610c4f565b91507fffffffffffffffffffffffffffffffffffffffffffffffffffffffffffffffff82036118505761184f611715565b5b600182019050919050565b600061186682610c4f565b915061187183610c4f565b925082820261187f81610c4f565b9150828204841483151761189657611895611715565b5b5092915050565b7f4e487b7100000000000000000000000000000000000000000000000000000000600052601260045260246000fd5b60006118d782610c4f565b91506118e283610c4f565b9250826118f2576118f161189d565b5b828204905092915050565b600060ff82169050919050565b6000611915826118fd565b9150611920836118fd565b9250828201905060ff81111561193957611938611715565b5b92915050565b600081905092915050565b7f19457468657265756d205369676e6564204d6573736167653a0a333200000000600082015250565b6000611980601c8361193f565b915061198b8261194a565b601c82019050919050565b6000819050919050565b6119b16119ac82610c97565b611996565b82525050565b60006119c282611973565b91506119ce82846119a0565b60208201915081905092915050565b6119e6816118fd565b82525050565b6000608082019050611a016000830187611135565b611a0e60208301866119dd565b611a1b6040830185611135565b611a286060830184611135565b95945050505050565b600081519050919050565b600081905092915050565b6000819050602082019050919050565b611a6081610e1c565b82525050565b6000611a728383611a57565b60208301905092915050565b6000602082019050919050565b6000611a9682611a31565b611aa08185611a3c565b9350611aab83611a47565b8060005b83811015611adc578151611ac38882611a66565b9750611ace83611a7e565b925050600181019050611aaf565b5085935050505092915050565b600081519050919050565b600081905092915050565b6000819050602082019050919050565b611b1881610c97565b82525050565b6000611b2a8383611b0f565b60208301905092915050565b6000602082019050919050565b6000611b4e82611ae9565b611b588185611af4565b9350611b6383611aff565b8060005b83811015611b94578151611b7b8882611b1e565b9750611b8683611b36565b925050600181019050611b67565b5085935050505092915050565b60008160e01b9050919050565b6000611bb982611ba1565b9050919050565b611bd1611bcc82610fb4565b611bae565b82525050565b6000611be38288611a8b565b9150611bef8287611a8b565b9150611bfb8286611b43565b9150611c078285611b43565b9150611c138284611bc0565b6004820191508190509695505050505050565b7f4f6e6c79206f776e65722063616e2075706461746520636f6d6d69747465652060008201527f73697a6500000000000000000000000000000000000000000000000000000000602082015250565b6000611c8260248361162c565b9150611c8d82611c26565b604082019050919050565b60006020820190508181036000830152611cb181611c75565b905091905056fea2646970667358221220d863447ce48dec80ca53fe4d295729f041c0c947a7e3b6d700c95aca68e272a664736f6c63430008120033",
  "linkReferences": {},
  "deployedLinkReferences": {}
}